:020000040800F2
:1000000070040020FD14000855140008571400085F
:10001000591400085B1400085D140008000000007B
:100020000000000000000000000000005F14000855
:100030006114000800000000631400086514000843
:100040001D150008211500082515000829150008B0
:100050002D15000831150008351500083915000860
:100060003D15000841150008451500084915000810
:100070004D150008511500085515000859150008C0
:100080005D15000861150008651500086915000870
:100090006D15000871150008751500087915000820
:1000A0007D150008811500088515000869140008F1
:1000B000891500088D150008911500089515000890
:1000C000991500089D150008A1150008A515000840
:1000D000A9150008AD150008B1150008B5150008F0
:1000E000B9150008BD150008C115000838B5040091
:1000F00001D1012032BD00F05FF818B900F0A3FA79
:1001000000F0A7FBFFE702206870211D206800F0C7
:10011000B4FA0120A872A870E87028716871A871FB
:10012000E871287268726870002032BD886800F03B
:10013000070006287047C2600122206800F049BB12
:100140000846016841F00101016070472868C168F4
:1001500021F0040170472868C16821F0020170474E
:1001600028680022214600F034BB2068C26842F0B3
:10017000100270472068C26842F00202704720688F
:10018000C26842F0080270472068C26842F0040268
:1001900070470446002504F13E00704738B504005E
:1001A00001D1012032BD00F007F818B900F04BFA78
:1001B00000F08AFBFFF7A7BF04F13C0568787047A1
:1001C0002868016A41F211121142704738B5FFF7F1
:1001D000E0FF11B9027803790AE0042902D14278DC
:1001E000437905E0082907BF82788379C278C3790B
:1001F000012A08BF012B01D0012032BD19B902220A
:10020000027002711BE0042905D102224270427182
:10021000FFF7BAFF15E0082905D10222827082712A
:10022000FFF7ADFF0DE00222C270C271080006D0D8
:100230000429EDD00829F3D00C2917D019E0FFF7D5
:1002400099FFFFF778FF00F01EF818BFB0F1804F5C
:1002500006D000F014F81CBFDFF8D82090420AD175
:100260008068FFF764FF08D0206804E0FFF77DFF97
:10027000E7E7012501E0FFF764FF284632BDDFF81C
:10028000B810884270472068DFF8B0108842704785
:10029000000070B506460C460025200006D0042C50
:1002A0001BD0082C1DD00C2C20D024E03068FFF788
:1002B00053FFC16000223068FFF754FF3068FFF73A
:1002C00080FF02BF006A40F24441084200F029F872
:1002D0009CB901210170017111E03068FFF737FF0F
:1002E000E7E73068C16821F00801E2E73068C168DB
:1002F00021F01001DDE7012501E000F002F82846B9
:1003000070BD042C03D10121417041717047082C4C
:1003100003D101218170817170470121C170C171C8
:10032000704704D13068016849084900016006F14E
:100330003E0070470008004000040040002C0140CF
:1003400070B504462068C5680669B10714D5AA07C8
:1003500012D56FF00201016101222277806910F04D
:10036000030F204602D000F0CAFA03E000F01EFBA3
:1003700000F07BF800202077700715D5690713D5AA
:1003800020686FF00402026102212177806910F475
:10039000407F204602D000F0B2FA03E000F006FBF6
:1003A00000F063F800202077300715D5290713D512
:1003B00020686FF00802026104212177C06910F003
:1003C000030F204602D000F09AFA03E000F0EEFAA4
:1003D00000F04BF800202077F00615D5E90613D57C
:1003E00020686FF01002026108212177C06910F4C3
:1003F000407F204602D000F082FA03E000F0D6FAF7
:1004000000F033F80020207706F0010105F001002C
:10041000014206D020686FF001010161204600F022
:10042000C6FA300608D5290606D522686FF0800086
:100430001061204600F0BCFA700608D5690606D5A2
:1004400022686FF040001061204600F0B2FAB0065A
:100450000AD5A90608D522686FF020001061204651
:10046000BDE8704000F0A6BA70BD204600F0A3BA07
:10047000F8B500F083F801D10220F2BD012084F824
:100480003C007AB9F36872683168206800F02BF993
:100490002168886920F00C0088618A69B06802438D
:1004A0008A6163E0042A10D1F368726831682068B9
:1004B00000F055F92068816921F44061816181690A
:1004C000B26841EA0221816150E0082A24D1216802
:1004D000F068726833681C311B024F68D1F804C0A1
:1004E0002CF4807CC1F804C027F40077D1F800C058
:1004F0004FEA9C0C42EA8C0260F3071203F400738B
:100500000A603B434B60086820F00C0008600A68F2
:10051000B06802430A6029E00C2A26D12068F168FD
:10052000726833681C301B034768D0F804C02CF491
:10053000805CC0F804C027F40057D0F800C02CF449
:10054000407C4CEA022C61F30F3C03F40053C0F8EA
:1005500000C03B434360016821F4406101600268D0
:10056000B16842EA0122026000E0012500F001F8D2
:10057000F2BD002084F83C00284670470446002560
:1005800094F83C0001280E46704770B5064606F107
:100590003C0500242878012801D1022070BD0120EB
:1005A000287002226A70DFF8840132689368034081
:1005B00093600868020018BF102830D0202818BFA8
:1005C00030282CD0402826D0502819D060281BD0A5
:1005D000702806D0B0F5805F27D0B0F5005F07D057
:1005E00022E000F02BF83068816841F0770105E0E7
:1005F00000F024F83068816841F48041816014E0A3
:1006000000F018F850210BE0CA684968306800F023
:10061000BCF8602104E000F00DF8402100E0014644
:10062000306800F0C4F800E001240120687000F098
:100630000AF870BDCA684968306881E0CB684A68CA
:1006400089683068BBE00021297020467047024667
:10065000002031B1042907D0082908D00C2909D07D
:1006600070471068406B70471068806B7047106867
:10067000C06B70471068006C704770B52C4E0368F3
:100680002C4C2D4DB04218BFB0F1804F03D0A84282
:1006900018BFA04209D14A6823F070031343B04247
:1006A0001CBFB0F1804FA84201D0A04203D1CA685C
:1006B00023F4407313434A6923F080031343036018
:1006C000B0428B68C3620A68826202D109691B4A20
:1006D0001160012343610169CA0703D50169490813
:1006E0004900016170BDF0B5046A056A104E6D08DD
:1006F0006D000562B042856918BFB0F1804F05D02A
:100700000D4EB0421CBF0B4FB84203D1AD0842EAB8
:10071000850201E045F0010263F3071224F00A04A8
:1007200001F00A01826121430162F0BD8800FFFFF0
:10073000002C01400008004000040040302C014023
:1007400010B5036A046A64086400046223F00A03B3
:10075000846924F0F00444EA0214846144E030B572
:10076000046A056A25F0100505620901856925F40A
:10077000407545EA022563F30F3524F0A00401F02B
:10078000A00185612143016230BD10B5036A046A8E
:1007900024F01004046223F0A003846924F470445C
:1007A00044EA0234846143EA0113036210BD8268A3
:1007B00022F07002114341F007018160704710B5CB
:1007C000846824F47F442143114341EA032181607A
:1007D00010BD10B501F01F01036A01248C40A34332
:1007E000036202FA01F1036A1943016210BD0EE0CF
:1007F00002684368024408305FEAC37C44BF4B444C
:100800005B1E52F804CB43F804CB091FF9D150F812
:10081000041B0029ECD17047274881B0016841F0E2
:1008200001010160026802F0010200920099426831
:1008300042F080524260406800F080500090009882
:100840001E48016821F0E06141F00071016001B0D3
:10085000704718B585B004461022002101A800F0A9
:10086000ABF821681648814224D11348016841F44D
:1008700000610160026802F400620092009902685F
:1008800042F0040202604FF48071006800F004003E
:100890000090002200980B4801910292039201A956
:1008A00000F094F8002200211B2000F087F91B20A3
:1008B00000F0A1F906B010BD18100240040001407C
:1008C000002C014000080140704700002F4948609B
:1008D0000021FFF77BBC10B52D4C012202212046E0
:1008E00000F034F9012000F0B1F92046BDE81040D5
:1008F0000022022100F02AB92448C068704738B5A8
:10090000224D6968044684B020680A6890423BD151
:100910002878B8B900212046FFF799FEA860002189
:100920002046FFF7B6FC00F035F8022100910122C5
:100930000192002100F033F800212046FFF746FC29
:10094000012020E000212046FFF781FEA9688842AF
:100950002FBF401A4FF6FF72511A40183A21B0FBD0
:10096000F1F0E86000212046FFF793FC00F012F858
:10097000012201920021009100F011F8002120468F
:10098000FFF724FC0020287005B030BD5C0000207B
:100990000008014010220021684600F00DB80291C5
:1009A0000022039269462046FFF762BD70477047F8
:1009B000704770477047704710B5044610460A46A6
:1009C0000146204600F056F9204610BD2DE9F847B3
:1009D0004FF0000E00245F4A5F4BDFF880814FF03C
:1009E0000F0982460CE017683840106006E0556039
:1009F0004D68ED03F7D51068074317600EF1010E3F
:100A00000F6837FA0EF000F09F80012000FA0EF612
:100A10003740B742F2D1486838B301281AD00228CB
:100A20001DD003282ED0112816D012281AD04C4DD4
:100A3000A8421CBF4B4DA84217D04B4DA8421CBF2B
:100A40004A4DA84211D04A4DA8421CBF494DA84268
:100A50000BD018E0CC6816E0CC68241D13E0CC68FD
:100A6000083410E0CC680C340DE0886808B9042420
:100A700009E0012819BF0824CAF814600824CAF83C
:100A8000106000E00024B7F5807F03D250464FEAA3
:100A90008E0C05E0AEF108050AF104004FEA850C62
:100AA000056809FA0CF6B54304FA0CF635430560FF
:100AB0004868C000A2D5D8F8000040F00100C8F88E
:100AC0000000D8F8005005F0010500954FEA8E05AA
:100AD00000984FEA9E0053F8206005F00C0C09FACC
:100AE0000CF526EA0505244EB24508BF00260ED0B7
:100AF000224EB24508BF012609D0214EB24508BF9B
:100B0000022604D01F4EB2450CBF0326042606FA67
:100B10000CF6354343F82050F8434D68ED029568D4
:100B20004CBF3D43054095604D68AD02D5684CBF54
:100B30003D430540D5604D685668AD034CBF47EA5C
:100B4000060500EA060552E7BDE8F18702B9090487
:100B50000161704700040140080001401810024084
:100B600000001110000012100000211000002210DF
:100B7000000031100000321000080140000C01405C
:100B800000100140001401400901020002D429486C
:100B900081547047284B02F00F021A4402F8041CDB
:100BA0007047264B19684FF6FF020002114000F40F
:100BB000E0600843224908431860704770B51F4B36
:100BC0001C68C4F302230124C3F10705052D2EBFC1
:100BD0000F2504FA05F56D1E1E1D072E34BF0023D8
:100BE000DB1E2940994004FA03F3BDE870405B1E08
:100BF0001A401143C8E7010007D4012200F01F0189
:100C0000104B8A40400943F82020704710B5401E21
:100C1000B0F1807F01D3012010BD0B4C60600F212B
:100C20004FF0FF30FFF7B0FF0021A16007202060E8
:100C3000002010BD00E400E018ED00E00CED00E045
:100C40000000FA0500E100E010E000E038B50446DD
:100C500000F044F814F1010F054602D00449087869
:100C6000041900F03BF8401BA042FAD331BD00BF8D
:100C70000000002062F30F2262F31F42401810F0C0
:100C8000030308D0C91A1FD3DB0748BF00F8012DA2
:100C900028BF20F8022D130030B414461546103931
:100CA00028BF20E93C00FAD8490728BF20E90C00FA
:100CB00048BF40F8042D890028BF20F8022D48BF06
:100CC00000F8012D30BC7047C91818BF00F8012D7D
:100CD000CB0728BF00F8012D70470000014840688D
:100CE000704700BF000000202DE9F843040016D033
:100CF0002078DFF84C64C10713D5706800F00C0051
:100D0000042807D0706800F00C00082841D17068F2
:100D1000C1033ED53068810303D56068002800F028
:100D200064812078DFF82874810719D5706810F085
:100D30000C0F07D0706800F00C00082861D17068B3
:100D4000C1035ED43068810703D52069012840F0D3
:100D50004C813168606921F0F80141EAC0013160DD
:100D60002178080740F18180A069DFF8E8130028A6
:100D700000F0A68001220A60FFF7B0FF0546706A06
:100D8000810763D4FFF7AAFF401B0228F7D903208D
:100D90002EE16068B0F5803F04D1306840F48030C7
:100DA000306014E008B930680AE0B0F5A02F306870
:100DB00006D140F480203060316841F4803105E094
:100DC00020F480303060316821F480213160606827
:100DD00058B1FFF783FF054630688103A1D4FFF7C0
:100DE0007DFF401B6528F7D3D1E7FFF777FF054666
:100DF0003068810395D5FFF771FF401B6528F7D355
:100E0000C5E72069A8B101213960FFF767FF0546F2
:100E10003068810705D4FFF761FF401B0228F7D92E
:100E2000B5E73068616920F0F80040EAC100306041
:100E300096E73860FFF752FF0546316888078FD57F
:100E4000FFF74CFF401B0228F7D9A0E7DFF8F402B8
:100E50000168C9084FF47A72B1FBF2F2009200BF48
:100E60000098411E00280091F9D1207841076ED5E5
:100E7000F0690025C10009D4F06940F08050F061AC
:100E80000125F06900F0805000900098DFF8C882DA
:100E9000D8F80000C10520D4D8F8000040F48070D4
:100EA000C8F80000FFF71AFF8146D8F80000C10516
:100EB00013D4FFF713FFA0EB09006528F5D366E70D
:100EC0000860FFF70BFF0546706A8107CDD5FFF775
:100ED00005FF401B0228F7D959E7E068012808D030
:100EE00008B9306A09E00528306A06D140F00400EC
:100EF0003062306A40F0010005E040084000306296
:100F0000306A20F00400306241F28938E06860B154
:100F1000FFF7E4FE8146306A810713D4FFF7DEFE57
:100F2000A0EB09004045F6D331E7FFF7D7FE814635
:100F3000306A810706D5FFF7D1FEA0EB09004045D6
:100F4000F6D324E71DB1F06920F08050F061E0692C
:100F500000284CD0716801F00C01082938D0022813
:100F60002AD100F047F805463068810105D5FFF722
:100F7000B5FE401B0228F7D909E7206AB0F5803F8B
:100F800005D17168A06821F4003101437160726875
:100F9000206A616A22F4741202430A4372600120DB
:100FA00000F029F804463068810120D4FFF796FE4E
:100FB000001B0228F7D9EAE600F01CF80446306866
:100FC000810114D5FFF78AFE001B0228F7D9DEE65F
:100FD00001280AD07068226A00F48031914202BF71
:100FE00000F47010616A884201D0012000E0002006
:100FF000BDE8F28300203866FFF770BE2DE9F041AE
:10100000040088464ED0554E00F077F802D200F02A
:101010006FF847D120684A4D810712D5400703D5A4
:10102000696841F4E06169602078010703D5686868
:1010300040F4605068606968A06821F0F0010143E5
:1010400069602178C80725D56068012802D1296820
:101050008A0303E00228296802D18A0102D421E030
:101060008A071FD56968890840EA81006860FFF730
:1010700035FE07466868616800F00C00B0EB810F30
:1010800008D0FFF72BFEC01B41F289318842F1D313
:1010900003202BE0306800F00700804504D200F008
:1010A00027F801D0012021E02078410705D56A68A2
:1010B000E06822F4E06202436A602178080706D5FE
:1010C0006968206921F4605141EAC001696000F05B
:1010D00019F86A6822491B4BC2F30312895CC840A5
:1010E00018601A48006800F04BF80020BDE8F08155
:1010F0003168C90848EAC1013160306800F0070072
:1011000040457047174910480A6802F00C03082B45
:1011100000D0704710B500BF14A4C2F38343D203BC
:10112000E35C08D50968584314A3C1F340415A5CF5
:10113000B0FBF2F010BD18460B49484310BD00004B
:10114000001002400C00002000127A00080000206D
:1011500000004242800442420070004000200240F1
:10116000EC1400080410024000093D0002030405CD
:10117000060708090A0B0C0D0E0F101001020000E3
:1011800038B50D4D0D4B2A7804464FF47A71186826
:10119000B1FBF2F2B0FBF2F0FFF738FD50B9102CC2
:1011A00008D2002221464FF0FF30FFF707FDAC6068
:1011B000002032BD012032BD000000200C000020C4
:1011C00010B58AB000F0C0F800F088F810220021B5
:1011D00001A8FFF7F1FB3D483D4C016841F02001BB
:1011E0000160026802F0200200920099026842F059
:1011F000040202600022006800F004000090022156
:1012000000982046FFF7A2FC0221019101220292E0
:10121000002103910222049201A92046FFF7D6FB88
:101220001022002106A8FFF7C7FB0822002168460C
:10123000FFF7C2FB1022002102A8FFF7BDFB254CDF
:101240002548206047214FF6FF700022E060616072
:10125000A26022616261A2612046FEF747FF08B1E9
:1012600000F06FF84FF48050069006A92046FFF773
:101270008CF908B100F065F82046FEF78FFF08B141
:1012800000F05FF80021009101912046694600F0CE
:101290006DF808B100F055F8012203920021029187
:1012A00004910022059202A92046FFF7E1F808B157
:1012B00000F047F82046FFF709FBFFF70CFB64201E
:1012C000FFF7C4FCFFF718FBA064F6E71810024014
:1012D0000008014010000020002C014000B58FB034
:1012E0002822002105A8FFF767FB14220021684689
:1012F000FFF762FB4FF480310022069107920D91B7
:1013000001200590099002224FF4E0110C920E91F9
:1013100005A8FFF7E9FC08B172B6FEE702210191CA
:101320000F204FF4806100900022039102920492FA
:1013300002216846FFF762FE08B172B6FEE70FB001
:1013400000BD72B6FEE7000080B50748016841F0B5
:10135000100101600320FFF724FC0F20FFF710FFAE
:10136000FFF75AFA002002BD0020024070B500F1DC
:101370003C031A78012A01D1022070BD01221A70A3
:1013800002245C7005686E68AC680A6826F0700616
:1013900016436E6002680B48824218BFB2F1804F5C
:1013A00005D0094882421CBF084DAA4204D14868B2
:1013B00024F08004044394600121597000201870C7
:1013C00070BD0000002C01400004004000080040F7
:1013D00030B4002512E050F8042BD30744BF4A4430
:1013E000521E091F042942F8045BFAD213468C07E7
:1013F00044BF15809B1CC90748BF1D7050F8041BD3
:101400000029E8D130BC704710B50749794418313C
:10141000064C7C44163404E00A68081D11448847D1
:101420000146A142F8D110BD0800000028000000CC
:10143000A1FFFFFF5C000000100000200000000082
:10144000AFF3FFFF10000000C40000000000002008
:1014500000000000FEE7FEE7FEE7FEE7FEE770475C
:101460007047704700F006B80148FEF769BF0000FA
:101470001000002002494A68087882184A607047C4
:101480000000002000F00DF8002801D0FFF7BCFF9D
:10149000AFF300800020AFF30080FFF791FE00F073
:1014A00002F80120704700F001B8000007463846F6
:1014B00000F002F8FBE7000080B5AFF30080024ABD
:1014C00011001820ABBEFBE72600020005480146CC
:1014D00003B4684680F30988AFF30080AFF300805F
:1014E000FFF7D0FFA5EDF5FE7047000000000000FB
:1014F00000000000010203040607080901488047B4
:1015000001480047E9140008CD140008010000005C
:10151000000000001000000000127A00FFF7FEBF7C
:10152000FFF7FEBFFFF7FEBFFFF7FEBFFFF7FEBFEF
:10153000FFF7FEBFFFF7FEBFFFF7FEBFFFF7FEBFDF
:10154000FFF7FEBFFFF7FEBFFFF7FEBFFFF7FEBFCF
:10155000FFF7FEBFFFF7FEBFFFF7FEBFFFF7FEBFBF
:10156000FFF7FEBFFFF7FEBFFFF7FEBFFFF7FEBFAF
:10157000FFF7FEBFFFF7FEBFFFF7FEBFFFF7FEBF9F
:10158000FFF7FEBFFFF7FEBFFFF7FEBFFFF7FEBF8F
:10159000FFF7FEBFFFF7FEBFFFF7FEBFFFF7FEBF7F
:1015A000FFF7FEBFFFF7FEBFFFF7FEBFFFF7FEBF6F
:1015B000FFF7FEBFFFF7FEBFFFF7FEBFFFF7FEBF5F
:0415C000FFF7FEBF74
:04000005080014CD0E
:00000001FF
