:020000040800F2
:100000006004002031180008F9170008FB170008E9
:10001000FD170008FF170008011800080000000085
:1000200000000000000000000000000003180008AD
:10003000051800080000000007180008091800084B
:100040004D180008511800085518000859180008E4
:100050005D18000861180008651800086918000894
:100060006D18000871180008751800087918000844
:100070007D180008811800088518000889180008F4
:100080008D180008911800089518000899180008A4
:100090009D180008A1180008A5180008A918000854
:1000A000AD180008B1180008B5180008B918000804
:1000B000BD180008C1180008C5180008C9180008B4
:1000C000CD180008D1180008D5180008D918000864
:1000D000DD180008E1180008E5180008E918000814
:1000E000ED180008F1180008F5180008F8B504002C
:1000F000002C01D1012039E22078C00740F1848032
:10010000DFF86406006810F00C0004280BD0DFF85C
:100110005806006810F00C0008280ED1DFF84806D9
:100120000068C00309D5DFF83C06006880036BD582
:100130006068002868D1012018E26068B0F5803F4F
:1001400008D1DFF82006006850F48030DFF814167C
:10015000086038E06068002810D1DFF80806006801
:1001600030F48030DFF8FC150860DFF8F80500682F
:1001700030F48020DFF8EC15086024E06068B0F50A
:10018000A02F10D1DFF8DC05006850F48020DFF8E4
:10019000D4150860DFF8CC05006850F48030DFF833
:1001A000C41508600FE0DFF8BC05006830F480304B
:1001B000DFF8B0150860DFF8AC05006830F4802087
:1001C000DFF8A0150860606800280ED000F0ECFA97
:1001D0000500DFF890050068800315D400F0E4FA0C
:1001E000401B6528F5D30320C0E100F0DDFA0500CF
:1001F000DFF870050068800306D500F0D5FA401BD3
:100200006528F5D30320B1E1207880075CD5DFF8BD
:100210005805006810F00C0F0BD0DFF84C05006893
:1002200010F00C0008281AD1DFF83C050068C00364
:1002300015D4DFF830050068800704D5206901284F
:1002400001D0012092E1DFF81C05006830F0F800D1
:10025000616950EAC100DFF80C15086034E02069DC
:1002600000281ED00120DFF81415086000F09CFA69
:100270000500DFF8F0040068800706D400F094FA67
:10028000401B0328F5D3032070E1DFF8D804006891
:1002900030F0F800616950EAC100DFF8C814086066
:1002A00012E00020DFF8D414086000F07DFA0500A9
:1002B000DFF8B0040068800706D500F075FA401B2F
:1002C0000328F5D3032051E1207800072CD5A0693D
:1002D000002816D00120DFF8A814086000F064FAA6
:1002E0000500DFF894040068800706D400F05CFA8B
:1002F000401B0328F5D3032038E1012000F01DFA4C
:1003000012E00020DFF87814086000F04DFA0500D4
:10031000DFF864040068800706D500F045FA401B4A
:100320000328F5D3032021E12078400740F1A8807D
:100330000027DFF850040068C00010D4DFF8440440
:10034000006850F08050DFF83C140860DFF8340497
:10035000006810F080500090009801200700DFF83E
:1003600028040068C00516D4DFF81C04006850F4A7
:100370008070DFF81414086000F016FA0500DFF84A
:1003800008040068C00506D400F00EFA401B65287A
:10039000F5D30320EAE0E068012808D1DFF8EC0398
:1003A000006850F00100DFF8E413086037E0E0680F
:1003B000002810D1DFF8D403006840084000DFF8BF
:1003C000CC130860DFF8C403006830F00400DFF8E5
:1003D000BC13086023E0E068052810D1DFF8AC0307
:1003E000006850F00400DFF8A4130860DFF89C03F5
:1003F000006850F00100DFF8941308600FE0DFF8A8
:100400008C03006840084000DFF880130860DFF8C4
:100410007C03006830F00400DFF870130860E068C7
:10042000002810D000F0C0F90500DFF86003006874
:10043000800719D400F0B8F9401B41F28931884295
:10044000F3D3032092E000F0AFF90500DFF83C039E
:100450000068800708D500F0A7F9401B41F28931F8
:100460008842F3D3032081E03800C0B2012807D1CD
:10047000DFF81003006830F08050DFF808130860E0
:10048000E069002871D0DFF8E002006810F00C008D
:10049000082855D0E06902283FD10020DFF8F0128B
:1004A000086000F081F90700DFF8B80200688001F9
:1004B00006D500F079F9C01B0328F5D3032055E0D9
:1004C000206AB0F5803F09D1DFF89C02016831F461
:1004D0000031A0680143DFF890020160DFF8880274
:1004E000016831F47411206A0143606A0143DFF846
:1004F000780201600120DFF89812086000F054F9DA
:100500000500DFF86002006880012ED400F04CF98D
:10051000401B0328F5D3032028E00020DFF87012E9
:10052000086000F041F90500DFF83802006880013A
:100530001BD500F039F9401B0328F5D3032015E043
:10054000E069012801D1012010E0DFF81C020068F9
:10055000060016F48030216A884204D116F4701027
:10056000616A884201D0012000E00020F2BD70B530
:1005700004000D00002C01D10120AEE0DFF81402D0
:10058000006810F00700A84211D2DFF808020068E6
:10059000C008C0002843DFF8FC110860DFF8F40150
:1005A000006810F00700A84201D0012095E02078F3
:1005B00080071FD52078400707D5DFF8AC01006819
:1005C00050F4E060DFF8A01108602078000707D53C
:1005D000DFF89401006850F46050DFF88C11086077
:1005E000DFF88401016831F0F001A0680143DFF811
:1005F000780101602078C00733D56068012805D1F3
:1006000058480068800310D4012066E06068022822
:1006100005D154480068800107D401205DE05148AD
:100620000068800701D4012057E04F48016889081D
:100630008900606801434C48016000F0B5F806008D
:100640004948006810F00C006168B0EB810F08D0D9
:1006500000F0AAF8801B41F289318842F0D30320D0
:100660003BE04C48006810F0070085420ED2494834
:100670000068C008C0002843464908604548006833
:1006800010F00700A84201D0012026E020784007A2
:1006900007D53548016831F4E061E068014332482C
:1006A00001602078000708D52F48006830F46050BA
:1006B000216950EAC1002C49086000F00FF8364962
:1006C000294A1268C2F30312895CC84028490860AD
:1006D0002848006800F06EF8002070BD70B400205B
:1006E00000210022002300241F4D2D6815F00C0668
:1006F000042E02D0082E02D01CE01C481BE0274824
:10070000C5F38346805D0300E8030DD52448164EEB
:100710003668C6F34046805D0100144800FB03F0D4
:10072000B0FBF1F0020003E01E4800FB03F0020002
:10073000100000E00D4870BC704781B00C4909689A
:10074000C9084FF47A72B1FBF2F101FB00F100919C
:1007500000BF00994A1E00920029F9D101B07047EC
:1007600000000000001002400410024000127A0055
:10077000040000200000002024100240000042423B
:10078000800442421C1002400070004020100240D1
:1007900060004242002002402018000810180008A3
:1007A0004E13000800093D0001480068704700BF73
:1007B0005800002010B504004FF47A700D490978F4
:1007C000B0FBF1F00C490968B1FBF0F000F095F8CE
:1007D000002801D001200CE0102C09D200222100B9
:1007E0005FF0FF3000F074F804480460002000E07F
:1007F000012010BD0800002004000020000000209F
:1008000010F0070340490A684FF6FF010A4052EA18
:1008100003223E490A433C490A6070473A4800684F
:10082000C0F30220704710B4020052B2002A05D46F
:100830000A01374B040064B21A5508E00A01354B2F
:10084000040064B214F00F04234403F8042C10BC19
:10085000704770B4030013F00704D4F107000528B3
:1008600001D3042001E0D4F10700251D072D01D29A
:10087000002500E0E51E012616FA00F0401E0140AA
:10088000A940012010FA05F56D1E2A401143080009
:1008900070BC704710B50400601EB0F1807F01D3BA
:1008A00001200EE0601E1C4908600F215FF0FF3040
:1008B000FFF7B9FF002019490860072018490860B0
:1008C000002010BD10B504002000FFF799FF10BDF7
:1008D0002DE9F04104000D0016000027FFF79EFFF0
:1008E0008046320029004046FFF7B3FF0100200098
:1008F00040B2FFF798FFBDE8F08110B5040020007A
:10090000FFF7C8FF10BD00000CED00E00000FA0585
:1009100000E400E018ED00E014E000E018E000E082
:1009200010E000E010B50400002C01D101202FE000
:1009300094F83D00002805D1002084F83C002000F8
:1009400000F023FB022084F83D00211D206800F008
:10095000BBF9012084F84600012084F83E00012004
:1009600084F83F00012084F84000012084F8410011
:10097000012084F84200012084F84300012084F81B
:100980004400012084F84500012084F83D00002047
:1009900010BD10B50400002C01D101202FE094F807
:1009A0003D00002805D1002084F83C00200000F024
:1009B0002FFB022084F83D00211D206800F084F9FF
:1009C000012084F84600012084F83E00012084F8CC
:1009D0003F00012084F84000012084F841000120FC
:1009E00084F84200012084F84300012084F8440088
:1009F000012084F84500012084F83D00002010BD4E
:100A000070B505000C00002C02D195F83E000BE0FB
:100A1000042C02D195F83F0006E0082C02D195F88D
:100A2000400001E095F84100012801D001204CE090
:100A3000002C04D1022085F83E00C0B211E0042C45
:100A400004D1022085F83F00C0B20AE0082C04D18E
:100A5000022085F84000C0B203E0022085F8410082
:100A6000C0B201222100286800F05AFA286817490C
:100A7000884205D12868406C50F4004029684864D9
:100A80002868124988420BD02868B0F1804F07D0FF
:100A900028680F49884203D028680E4988420DD142
:100AA0002868806810F007000600062E0CD0286821
:100AB000006850F001002968086005E028680068B7
:100AC00050F0010029680860002070BD002C014032
:100AD0000004004000080040F8B504000D001700B5
:100AE000002694F83C00012801D1022071E0012089
:100AF00084F83C003800002806D004281BD00828C1
:100B000031D00C2846D05DE02900206800F015F9AE
:100B10002068806950F00800216888612068806939
:100B200030F00400216888612068816928690143E8
:100B30002068816148E02900206800F02BF92068D6
:100B4000806950F40060216888612068806930F411
:100B500080602168886120688069296950EA0120E5
:100B60002168886130E02900206800F045F920689C
:100B7000C06950F008002168C8612068C06930F081
:100B800004002168C8612068C169286901432068A0
:100B9000C16119E02900206800F05FF92068C06990
:100BA00050F400602168C8612068C06930F480603A
:100BB0002168C8612068C069296950EA012021685C
:100BC000C86101E001200600002084F83C003000EC
:100BD000C0B2F2BDF8B504000D00002694F83C0048
:100BE000012801D102206EE0012084F83C0002209F
:100BF00084F83D002068876837F0770737F47F472F
:100C000020688760286800284ED010284CD0202803
:100C10004AD0302848D040283CD0502826D06028E0
:100C20002ED0702807D0B0F5805F03D0B0F5005FFC
:100C30000FD03EE03FE0EB686A68A968206800F0EA
:100C400064F92068806850F07700070020688760AA
:100C500031E0EB686A68A968206800F056F92068FE
:100C6000806850F480402168886024E0EA68696800
:100C7000206800F01DF95021206800F03EF91AE0CC
:100C8000EA686968206800F025F96021206800F0B2
:100C900034F910E0EA686968206800F009F9402139
:100CA000206800F02AF906E02968206800F025F99C
:100CB00001E001200600012084F83D00002084F8B6
:100CC0003C003000C0B2F2BD0368764A904208D0C2
:100CD000B0F1804F05D0744A904202D0734A9042DE
:100CE00003D133F070034A6813436E4A904208D030
:100CF000B0F1804F05D06C4A904202D06B4A9042CE
:100D000003D133F44073CA68134333F080034A6954
:100D1000134303608A68C2620A688262614A904231
:100D200001D10A690263012242610269D20703D537
:100D30000269520852000261704730B4046A026AC4
:100D40005208520002624568836933F070039B08C1
:100D50009B000A68134334F002048A681443514A22
:100D6000904205D134F00804CA68144334F00404F6
:100D70004C4A904207D135F4807535F400754A69C4
:100D800015438A691543456083614A68426304627A
:100D900030BC704730B4036A026A32F0100202625B
:100DA0004468826932F4E04232F440720D6852EADB
:100DB000052233F020038D6853EA0513394DA8420C
:100DC00006D133F08003CD6853EA051333F04003B6
:100DD000344DA84209D134F4806434F400644D6980
:100DE00054EA85048D6954EA8504446082614D6843
:100DF0008563036230BC704730B4046A026A32F41F
:100E0000807202624568C36933F070039B089B00DF
:100E10000A68134334F400748A6854EA0224214AAD
:100E2000904206D134F40064CA6854EA022434F4CF
:100E300080641C4A904209D135F4805535F4005540
:100E40004A6955EA02158A6955EA02154560C36187
:100E50004A68C263046230BC704730B4036A026AF5
:100E600032F4805202624468C26932F4E04232F4E1
:100E700040720D6852EA052233F400538D6853EA3C
:100E80000533084DA84204D134F480444D6954EA36
:100E900085144460C2614D680564036230BC7047CC
:100EA00000000000002C0140000400400008004049
:100EB00010B4046A036A5B085B000362836933F061
:100EC000F00353EA021334F00A040C438361046212
:100ED00010BC704710B4046A036A33F01003036255
:100EE000836933F4704353EA023334F0A00454EAC4
:100EF00001148361046210BC7047826832F0700292
:100F00000A4352F007028260704710B4846834F4D8
:100F10007F440C43144354EA0324846010BC70479C
:100F200030B4012411F01F0314FA03F3046A9C4344
:100F30000462046A11F01F0512FA05F52C430462DD
:100F400030BC704781B02D48006850F001002B493B
:100F500008602A48006810F00100009000982848B6
:100F6000006850F08050264908602548006810F05D
:100F70008050009000982348006830F0E06050F006
:100F800000702049086001B0704781B001681E4AB6
:100F900091420BD11A49096851F00401184A1160B5
:100FA0001749096811F004010091009901B07047D8
:100FB00018B585B004001022002101A800F029F81E
:100FC00020681149884216D10C48006850F008008A
:100FD0000A4908600948006810F00800009000986D
:100FE0004FF4C0700190022002900220049001A9E9
:100FF000064800F02DF806B010BD000018100240A1
:101000001C1002400400014000080040000C014098
:10101000704710B5044610460A460146204600F0C7
:1010200063F9204610BD0EE00268436802440830B0
:101030005FEAC37C44BF4B445B1E52F804CB43F8C9
:1010400004CB091FF9D150F8041B0029ECD17047DB
:101050002DE9F84302005FF0000E5FF00008086819
:1010600030FA0EF0002800F00481012010FA0EF092
:1010700003000868184004009C4240F0F78048686C
:10108000002831D0012820D0022825D003283CD0C8
:1010900011281DD0122823D0DFF80CC2604523D0C0
:1010A000DFF808C260451FD0DFF804C260451BD0DE
:1010B000DFF800C2604517D0DFF8FCC1604513D0EF
:1010C000DFF8F8C160450FD022E0C86880461FE015
:1010D000C868001D80461BE0C8680830804617E0DD
:1010E000C8680C30804613E08868002802D10420CC
:1010F000804609E08868012803D1082080461361F2
:1011000002E008208046536102E000208046FFE7AD
:10111000B4F5807F01D2160000E0161DB4F5807F83
:1011200002D25FEA8E0702E0BEF10807BF00D6F8E0
:1011300000C00F20B8403CEA000C18FA07F050EA53
:101140000C0CC6F800C04868C00040F18F805C48B5
:10115000006850F00100DFF868C1CCF80000584882
:10116000006810F00100009000985648F4465FEACD
:101170009C0C50F82CC05FF00F091EF00300C0B2A9
:10118000800019FA00F93CEA090C4F48824202D16A
:101190005FF0000913E04D48824202D15FF001097F
:1011A0000DE04B48824202D15FF0020907E0494856
:1011B000824202D15FF0030901E05FF00409654655
:1011C0001EF00300C0B2800019FA00F959EA0505C3
:1011D0003C48F4465FEA9C0C40F82C504868C0023A
:1011E00007D53D4800682043DFF8ECC0CCF800008C
:1011F00006E039480068A043DFF8DCC0CCF8000006
:101200004868800207D5354800682043DFF8CCC025
:10121000CCF8000006E031480068A043DFF8BCC00D
:10122000CCF800004868800307D52D4800682043AB
:10123000DFF8ACC0CCF8000006E029480068A04305
:10124000DFF89CC0CCF800004868C00307D52548EB
:1012500000682043DFF88CC0CCF8000006E021488D
:101260000068A043DFF87CC0CCF800001EF1010E3E
:10127000F5E6BDE8F183020090680B009BB21842CE
:1012800001D0012000E00020C0B270471300DBB2A3
:10129000002B03D00B009BB2036103E00B009BB259
:1012A0001B040361704700000000111000001210C1
:1012B0000000211000002210000031100000321048
:1012C000181002400800014000080140000C0140D5
:1012D0000010014000140140080401400C040140CA
:1012E000040401400004014062F30F2262F31F4234
:1012F000401810F0030308D0C91A1FD3DB0748BFFA
:1013000000F8012D28BF20F8022D130030B4144638
:101310001546103928BF20E93C00FAD8490728BFF4
:1013200020E90C0048BF40F8042D890028BF20F8B0
:10133000022D48BF00F8012D30BC7047C91818BFF6
:1013400000F8012DCB0728BF00F8012D70470102DE
:1013500080B500F039F900F056F800F0EBF800F035
:1013600081F804219148FFF74BFB08218F48FFF7D4
:1013700047FB01218E48FFF77EFF002803D100F0D4
:1013800037F900F041F901218948FFF774FF01287E
:1013900003D100F045F900F04FF902218448FFF72E
:1013A0006AFF01280FD183480068401C814908600A
:1013B000012000F04FF97F480068B0F57A7F02D134
:1013C00000207C49086004217948FFF754FF012878
:1013D0000ED178480068401E76490860012000F070
:1013E00039F974480068002802D10020714908606A
:1013F000704800686D49096888636E4800686B49E9
:101400000968C863B5E700B58FB02822002105A898
:10141000FFF7FFFD142200216846FFF7FAFD0220C6
:1014200005900120099010200A9000200C9005A83A
:10143000FEF75CFE002801D000F0C4F80F200090F9
:1014400000200190002002900020039000200490D2
:1014500000216846FFF78BF8002801D000F0B2F8B1
:101460000FB000BD00B58DB01022002109A8FFF714
:10147000D0FD082200216846FFF7CBFD1C22002189
:1014800002A8FFF7C6FD4C48484908606420474958
:1014900048600020454988604FF47A704349C8602D
:1014A0000020424908610020404988613F48FFF719
:1014B00039FA002801D000F085F84FF480500990E7
:1014C00009A93A48FFF786FB002801D000F07AF816
:1014D0003648FFF75EFA002801D000F073F80020CC
:1014E0000090002001906946304800F0C7F80028BD
:1014F00001D000F067F860200290002003900020E7
:10150000049000200690042202A92848FFF7E4FA7C
:10151000002801D000F056F8082202A92348FFF75E
:10152000DBFA002801D000F04DF82048FFF740FD1D
:101530000DB000BD00B585B0102200216846FFF750
:1015400068FD1E48006850F004001C4908601B48F4
:10155000006810F00400049004981848006850F0E7
:101560000800164908601548006810F0080004904B
:101570000498002278211248FFF788FE0720009087
:10158000002001900120029069460948FFF760FDA4
:10159000782000900120019000200290022003900A
:1015A00069460748FFF754FD05B000BD0C00002058
:1015B00000080140540000200008004018100240BC
:1015C000000C014072B6FEE780B50848006850F094
:1015D0001000064908600320FFF774F90F20FFF799
:1015E000E9F8FFF7AFFC002002BD00000020024038
:1015F00080B5012240211648FFF748FE0022202135
:101600001348FFF743FE01BD80B5012210211048A9
:10161000FFF73CFE002208210D48FFF737FE01BD11
:1016200080B5002240210A48FFF730FE0122202128
:101630000748FFF72BFE01BD80B5002210210448AA
:10164000FFF724FE012208210148FFF71FFE01BD1C
:10165000000C014070B50400FFF7A6F80500260055
:1016600016F1010F02D0044800788619FFF79CF8A4
:10167000401BB042FAD370BD0800002030B4020015
:1016800092F83C00012801D102202CE0012082F8D0
:101690003C00022082F83D001068436810688468AE
:1016A00033F07003086803431068436010680F4DFF
:1016B000A8420BD01068B0F1804F07D010680C4DD5
:1016C000A84203D010680B4DA84205D134F0800425
:1016D0004868044310688460012082F83D000020BF
:1016E00082F83C00002030BC70470000002C014014
:1016F000000400400008004030B4002512E050F81B
:10170000042BD30744BF4A44521E091F042942F840
:10171000045BFAD213468C0744BF15809B1CC90793
:1017200048BF1D7050F8041B0029E8D130BC704739
:1017300010B5074979441831064C7C44163404E04E
:101740000A68081D114488470146A142F8D110BD1E
:101750000800000028000000A1FFFFFF500000006B
:101760000C00002000000000BFF8FFFF0C0000008C
:10177000D0000000000000200000000000F00DF884
:10178000002801D0FFF7D4FFAFF300800020AFF3B3
:101790000080FFF7DDFD00F002F80120704700F047
:1017A00001B800000746384600F002F8FBE70000E9
:1017B00080B5AFF30080024A11001820ABBEFBE7F2
:1017C000260002000548014603B4684680F30988F4
:1017D000AFF30080AFF30080FFF7D0FFA5EDF5FE7B
:1017E00003480168034800784118014801607047C8
:1017F0005800002008000020FEE7FEE7FEE7FEE7B5
:10180000FEE770477047704780B5FFF7E9FF01BDFD
:1018100002030405060708090A0B0C0D0E0F101031
:101820000000000000000000010203040607080990
:101830000148804701480047F9180008C51700080B
:101840001000000000127A0001000000FFF7FEBF48
:10185000FFF7FEBFFFF7FEBFFFF7FEBFFFF7FEBFBC
:10186000FFF7FEBFFFF7FEBFFFF7FEBFFFF7FEBFAC
:10187000FFF7FEBFFFF7FEBFFFF7FEBFFFF7FEBF9C
:10188000FFF7FEBFFFF7FEBFFFF7FEBFFFF7FEBF8C
:10189000FFF7FEBFFFF7FEBFFFF7FEBFFFF7FEBF7C
:1018A000FFF7FEBFFFF7FEBFFFF7FEBFFFF7FEBF6C
:1018B000FFF7FEBFFFF7FEBFFFF7FEBFFFF7FEBF5C
:1018C000FFF7FEBFFFF7FEBFFFF7FEBFFFF7FEBF4C
:1018D000FFF7FEBFFFF7FEBFFFF7FEBFFFF7FEBF3C
:1018E000FFF7FEBFFFF7FEBFFFF7FEBFFFF7FEBF2C
:0A18F000FFF7FEBFFFF7FEBF7047D1
:04000005080017C513
:00000001FF
