:020000040800F2
:1000000060040020891100085111000853110008F4
:100010005511000857110008591100080000000090
:100020000000000000000000000000005B1100085C
:100030005D110008000000005F1100086111000858
:10004000A9110008AD110008B1110008B511000890
:10005000B9110008BD110008C1110008C511000840
:10006000C9110008CD110008D1110008D5110008F0
:10007000D9110008DD110008E1110008E5110008A0
:10008000E9110008ED110008F1110008F511000850
:10009000F9110008FD1100080112000805120008FE
:1000A000091200080D1200081112000815120008AC
:1000B000191200081D12000821120008251200085C
:1000C000291200082D12000831120008351200080C
:1000D000391200083D1200084112000845120008BC
:1000E000491200084D120008511200082DE9F8438A
:1000F000040016D02078DFF84C64C10713D570686F
:1001000000F00C00042807D0706800F00C000828EC
:1001100041D17068C1033ED53068810303D5606862
:10012000002800F064812078DFF82874810719D551
:10013000706810F00C0F07D0706800F00C000828F1
:1001400061D17068C1035ED43068810703D520692E
:10015000012840F04C813168606921F0F80141EAE2
:10016000C00131602178080740F18180A069DFF883
:10017000E813002800F0A68001220A6000F016FAB9
:100180000546706A810763D400F010FA401B02280C
:10019000F7D903202EE16068B0F5803F04D13068C4
:1001A00040F48030306014E008B930680AE0B0F5FF
:1001B000A02F306806D140F480203060316841F4CF
:1001C000803105E020F480303060316821F48021F6
:1001D0003160606858B100F0E9F905463068810384
:1001E000A1D400F0E3F9401B6528F7D3D1E700F074
:1001F000DDF905463068810395D500F0D7F9401B3D
:100200006528F7D3C5E72069A8B10121396000F05E
:10021000CDF905463068810705D400F0C7F9401BC9
:100220000228F7D9B5E73068616920F0F80040EAA4
:10023000C100306096E7386000F0B8F905463168D3
:1002400088078FD500F0B2F9401B0228F7D9A0E744
:10025000DFF8F4020168C9084FF47A72B1FBF2F2D8
:10026000009200BF0098411E00280091F9D120782B
:1002700041076ED5F0690025C10009D4F06940F04E
:100280008050F0610125F06900F0805000900098E6
:10029000DFF8C882D8F80000C10520D4D8F80000E3
:1002A00040F48070C8F8000000F080F98146D8F86A
:1002B0000000C10513D400F079F9A0EB090065280E
:1002C000F5D366E7086000F071F90546706A8107AA
:1002D000CDD500F06BF9401B0228F7D959E7E0684B
:1002E000012808D008B9306A09E00528306A06D12B
:1002F00040F004003062306A40F0010005E0400840
:1003000040003062306A20F00400306241F28938E7
:10031000E06860B100F04AF98146306A810713D481
:1003200000F044F9A0EB09004045F6D331E700F0B6
:100330003DF98146306A810706D500F037F9A0EB18
:1003400009004045F6D324E71DB1F06920F0805044
:10035000F061E06900284CD0716801F00C010829B7
:1003600038D002282AD100F047F8054630688101CC
:1003700005D500F01BF9401B0228F7D909E7206AD0
:10038000B0F5803F05D17168A06821F400310143C8
:1003900071607268206A616A22F4741202430A432F
:1003A0007260012000F029F804463068810120D4F1
:1003B00000F0FCF8001B0228F7D9EAE600F01CF870
:1003C00004463068810114D500F0F0F8001B0228C3
:1003D000F7D9DEE601280AD07068226A00F480317D
:1003E000914202BF00F47010616A884201D001207E
:1003F00000E00020BDE8F2830020386600F0D6B8A7
:100400002DE9F041040088464ED0554E00F077F8B3
:1004100002D200F06FF847D120684A4D810712D50B
:10042000400703D5696841F4E061696020780107FD
:1004300003D5686840F4605068606968A06821F07E
:10044000F001014369602178C80725D5606801285B
:1004500002D129688A0303E00228296802D18A01AF
:1004600002D421E08A071FD56968890840EA810023
:10047000686000F09BF807466868616800F00C004F
:10048000B0EB810F08D000F091F8C01B41F2893128
:100490008842F1D303202BE0306800F0070080454C
:1004A00004D200F027F801D0012021E02078410794
:1004B00005D56A68E06822F4E06202436A60217848
:1004C000080706D56968206921F4605141EAC00136
:1004D000696000F019F86A6822491B4BC2F30312E5
:1004E000895CC84018601A48006800F065F8002070
:1004F000BDE8F0813168C90848EAC101316030685F
:1005000000F0070040457047174910480A6802F09C
:100510000C03082B00D0704710B500BF14A4C2F321
:100520008343D203E35C08D50968584314A3C1F39D
:1005300040415A5CB0FBF2F010BD18460B494843ED
:1005400010BD0000001002400C00002000127A00D4
:100550000800002000004242800442420070004037
:1005600000200240781100080410024000093D00FC
:1005700002030405060708090A0B0C0D0E0F1010E4
:1005800001020EE002684368024408305FEAC37C5F
:1005900044BF4B445B1E52F804CB43F804CB091F05
:1005A000F9D150F8041B0029ECD17047014840688C
:1005B000704700BF0000002038B50D4D0D4B2A7864
:1005C00004464FF47A711868B1FBF2F2B0FBF2F016
:1005D00000F049F850B9102C08D2002221464FF003
:1005E000FF3000F023F8AC60002032BD012032BDA6
:1005F000000000200C0000200901020002D4244861
:1006000081547047234B02F00F021A4402F8041C75
:100610007047214B19684FF6FF020002114000F4A9
:10062000E06008431D4908431860704770B51A4BD5
:100630001C68C4F302230124C3F10705052D2EBF56
:100640000F2504FA05F56D1E1E1D072E34BF00236D
:10065000DB1E2940994004FA03F3BDE870405B1E9D
:100660001A401143C8E710B5401EB0F1807F01D396
:10067000012010BD0A4C60600F214FF0FF30FFF7E2
:10068000BBFF0021A16007202060002010BD0000FA
:1006900000E400E018ED00E00CED00E00000FA05D9
:1006A00010E000E038B5040001D1012032BD00F0B7
:1006B00043F818B900F0A4F800F039F924E090F8F4
:1006C0003D10012901D001207047022180F83D1022
:1006D000DFF85C200168914218BFB1F1804F07D06C
:1006E000DFF8502091421CBFDFF85430994205D109
:1006F000896801F00701062904D001680A6842F000
:1007000001020A600020704702206870211D2068E5
:1007100000F07AF80120A872A870E870287168715A
:10072000A871E871287268726870002032BD0000FC
:10073000002C01400004004004F13C05687870473B
:100740000008004070B5064606F13C0500242878F4
:10075000012801D1022070BD0120287002226A7098
:10076000DFF8100132689368034093600868020064
:1007700018BF102830D0202818BF30282CD040288F
:1007800026D0502819D060281BD0702806D0B0F58C
:10079000805F27D0B0F5005F07D022E000F02BF893
:1007A0003068816841F0770105E000F024F8306896
:1007B000816841F48041816014E000F018F8502114
:1007C0000BE0CA684968306800F06DF8602104E009
:1007D00000F00DF8402100E00146306800F075F8A7
:1007E00000E001240120687000F00AF870BDCA68BA
:1007F0004968306848E0CB684A68896830686CE0CE
:10080000002129702046704770B51B4E03681B4CB1
:100810001B4DB04218BFB0F1804F03D0A84218BFA3
:10082000A04209D14A6823F070031343B0421CBFB1
:10083000B0F1804FA84201D0A04203D1CA6823F48E
:10084000407313434A6923F0800313430360B042AB
:100850008B68C3620A68826202D10969094A116021
:10086000012343610169CA0703D5016949084900A9
:10087000016170BD8800FFFF002C014000080040AE
:1008800000040040302C014010B5036A046A64087B
:100890006400046223F00A03846924F0F00444EA4B
:1008A0000214846123E010B5036A046A24F0100482
:1008B000046223F0A003846924F4704444EA0234FF
:1008C000846143EA0113036210BD826822F0700262
:1008D000114341F007018160704710B5846824F42A
:1008E0007F442143114341EA0321816010BD194334
:1008F000016210BD164881B0016841F0010101603C
:10090000026802F0010200920099426842F08052AF
:100910004260406800F08050009000980D480168E7
:1009200021F0E06141F00071016001B0704781B0D9
:100930000068B0F1804F09D10748016841F001011A
:100940000160006800F001000090009801B070475D
:1009500018100240040001401C1002402DE9F84725
:100960004FF0000E0024624A624BDFF88C814FF09A
:100970000F0982460CE017683840106006E05560A9
:100980004D68ED03F7D51068074317600EF1010EAF
:100990000F6837FA0EF000F09F80012000FA0EF683
:1009A0003740B742F2D1486838B301281AD002283C
:1009B0001DD003282ED0112816D012281AD04F4D42
:1009C000A8421CBF4E4DA84217D04E4DA8421CBF96
:1009D0004D4DA84211D04D4DA8421CBF4C4DA842D0
:1009E0000BD018E0CC6816E0CC68241D13E0CC686E
:1009F000083410E0CC680C340DE0886808B9042491
:100A000009E0012819BF0824CAF814600824CAF8AC
:100A1000106000E00024B7F5807F03D250464FEA13
:100A20008E0C05E0AEF108050AF104004FEA850CD2
:100A3000056809FA0CF6B54304FA0CF6354305606F
:100A40004868C000A2D5D8F8000040F00100C8F8FE
:100A50000000D8F8005005F0010500954FEA8E051A
:100A600000984FEA9E0053F8206005F00C0C09FA3C
:100A70000CF526EA0505274EB24508BF00260ED024
:100A8000254EB24508BF012609D0244EB24508BF05
:100A9000022604D0224EB2450CBF0326042606FAD5
:100AA0000CF6354343F82050F8434D68ED02956845
:100AB0004CBF3D43054095604D68AD02D5684CBFC5
:100AC0003D430540D5604D685668AD034CBF47EACD
:100AD000060500EA060552E7BDE8F1878068084090
:100AE00018BF0120C0B2704702B909040161704704
:100AF00000040140080001401810024000001110DD
:100B0000000012100000211000002210000031101F
:100B10000000321000080140000C014000100140AC
:100B200000140140F8B500F014F8022100910122F0
:100B30000391019207E0F8B500F00BF80221009153
:100B400000220192029269463C48FFF707FF05B078
:100B500000BD10220021684600F0AFB870B5FFF765
:100B6000E1FF00F062F800F05BF8416AB1F5F07F58
:100B7000FBD3FFF7E0FF30684462416A3C29FCD3B5
:100B800002212846FFF7AAFF00B90124306800219E
:100B90004162416AB1F5D27FFBD3204670BD38B5C2
:100BA0000446FFF7BFFF002202212448224DFFF731
:100BB0009BFF29686CB100204862486A0028FCD07D
:100BC000FFF7B9FF286800214162416A3C29FCD344
:100BD00031BD00204862486A3C28FCD3BDE8314062
:100BE000A9E770B5FFF79EFF00F01FF800F018F8B6
:100BF000416A0229FCD3FFF79EFF30684462416AD4
:100C00000A29FCD302212846FFF768FF00B101241E
:100C1000306800214162416A3229FCD3204670BD10
:100C2000054E3068002444627047044D00220221C2
:100C30002846FFF759BF00001000002000080140BF
:100C400038B50546082405F00100FFF7A8FF6D0838
:100C5000641EF8D131BD38B500250824FFF7C1FF67
:100C60006D0808B145F08005641EF7D1284632BDF5
:100C700010B5FFF773FFCC20FFF7E2FF4420FFF72A
:100C8000DFFF40F2EE2000F023F8FFF767FFCC20F3
:100C9000FFF7D6FFBE20FFF7D3FFFFF7DCFF0446C8
:100CA000FFF7D9FF44EA002420B200F025F8BDE8A0
:100CB00010404FF0765100F031B810B504461046A0
:100CC0000A460146204600F095F8204610BD000077
:100CD00038B50446FFF76AFC14F1010F054602D04F
:100CE000044908780419FFF761FC401BA042FAD3BD
:100CF00031BD00BF0000002010F0004C68B148BFBB
:100D00004042B0FA80F18840D1F19D014CEAC15CCB
:100D1000010671F100414CEB10207047FF2212EAEE
:100D2000D05C1DBF12EAD153944593422BE09C4402
:100D3000D30780EA010243EA002043EA01211A4076
:100D4000A1FB0030C04238BF00187CF17F010BDBF3
:100D5000FE294ADA5B0842EAC15153EA006373F1A3
:100D6000004C51EB10207047D1F1080CDCF1200150
:100D70002FDB5B0810FA01F10B4320FA0CF073F142
:100D800000415041704794451CBF02EAD153934241
:100D900080EA010202F000421DD0400019D0490053
:100DA00017D05BB9634514D00902B1FA81F39940B9
:100DB000BCEB030CC00140F00040C1E70002B0FAF8
:100DC00080FC10FA0CF0B3EB0C0CC90141F00041AF
:100DD000B6E71000704740000AD0490008D010F173
:100DE000807F94BF11F1807F02E042F0FF407047A6
:100DF000D043704762F30F2262F31F42401810F095
:100E0000030308D0C91A1FD3DB0748BF00F8012D20
:100E100028BF20F8022D130030B4144615461039AF
:100E200028BF20E93C00FAD8490728BF20E90C0078
:100E300048BF40F8042D890028BF20F8022D48BF84
:100E400000F8012D30BC7047C91818BF00F8012DFB
:100E5000CB0728BF00F8012D7047000010B586B001
:100E600000F0A0F800F06BF801A800F061F82D4840
:100E70002D4C016841F020010160026802F020025F
:100E800000920099026842F00402026000220068A9
:100E900000F004000090022100982046FFF724FE95
:100EA0000221019101220292002103910222049267
:100EB00001A92046FFF752FD02A800F039F8CDE95C
:100EC00000124720194C60604FF6FF704FF08041D0
:100ED000E0602160A2602261A2612046FFF7E2FB90
:100EE00008B100F05DF84FF48050029002A920464E
:100EF000FFF728FC08B100F053F8002100910191A0
:100F00002046694600F060F808B100F049F8204634
:100F1000FFF7D5FBFFF7ACFEA0646420FFF7D8FE17
:100F2000F8E70000181002400008014010000020FF
:100F3000002100220023002480E81E00704700B535
:100F40008FB0282105A800F071F81421684600F040
:100F50006DF84FF480310022069107920D91012027
:100F60000590099002224FF4E0110C920E9105A811
:100F7000FFF7BCF808B172B6FEE7022101910F201D
:100F80004FF48061009000220391029204920221AA
:100F90006846FFF735FA08B172B6FEE70FB000BD3C
:100FA00072B6FEE780B50748016841F010010160A4
:100FB0000320FFF72EFB0F20FFF7FEFAFFF79AFC46
:100FC000002002BD0020024070B500F13C031A78F9
:100FD000012A01D1022070BD01221A7002245C7026
:100FE00005686E68AC680A6826F0700616436E6085
:100FF00002680B48824218BFB2F1804F05D0094801
:1010000082421CBF084DAA4204D1486824F08004E3
:1010100004439460012159700020187070BD0000D5
:10102000002C01400004004000080040002200F0B5
:1010300001B8000000B500BF130096469446103971
:1010400028BFA0E80C50FAD85FEA417C28BF0CC04A
:1010500048BF40F8042BC90728BF20F8022B48BF1F
:1010600000F8012B00BD30B4002512E050F8042B2D
:10107000D30744BF4A44521E091F042942F8045BA7
:10108000FAD213468C0744BF15809B1CC90748BF82
:101090001D7050F8041B0029E8D130BC70470000D7
:1010A00010B5074979441831064C7C44163404E0E5
:1010B0000A68081D114488470146A142F8D110BDB5
:1010C00008000000280000009FFFFFFF4C00000008
:1010D0001000002000000000ABF4FFFF1000000033
:1010E000B8000000000000200000000000F00DF833
:1010F000002801D0FFF7D4FFAFF300800020AFF34A
:101100000080FFF7ABFE00F002F80120704700F00E
:1011100001B800000746384600F002F8FBE700007F
:1011200080B5AFF30080024A11001820ABBEFBE788
:10113000260002000548014603B4684680F309888A
:10114000AFF30080AFF30080FFF7D0FFA5EDF5FE11
:10115000FEE7FEE7FEE7FEE7FEE7704770477047F1
:1011600000F000B802494A68087882184A6070475F
:101170000000002070470000000000000000000098
:101180000102030406070809014880470148004797
:101190007511000835110008010000000000000072
:1011A0001000000000127A00FFF7FEBFFFF7FEBF3D
:1011B000FFF7FEBFFFF7FEBFFFF7FEBFFFF7FEBF63
:1011C000FFF7FEBFFFF7FEBFFFF7FEBFFFF7FEBF53
:1011D000FFF7FEBFFFF7FEBFFFF7FEBFFFF7FEBF43
:1011E000FFF7FEBFFFF7FEBFFFF7FEBFFFF7FEBF33
:1011F000FFF7FEBFFFF7FEBFFFF7FEBFFFF7FEBF23
:10120000FFF7FEBFFFF7FEBFFFF7FEBFFFF7FEBF12
:10121000FFF7FEBFFFF7FEBFFFF7FEBFFFF7FEBF02
:10122000FFF7FEBFFFF7FEBFFFF7FEBFFFF7FEBFF2
:10123000FFF7FEBFFFF7FEBFFFF7FEBFFFF7FEBFE2
:10124000FFF7FEBFFFF7FEBFFFF7FEBFFFF7FEBFD2
:04125000FFF7FEBFE7
:0400000508001135A9
:00000001FF
