:020000040800F2
:10000000680400203D1800080518000807180008BB
:10001000091800080B1800080D180008000000005F
:100020000000000000000000000000000F180008A1
:100030001118000800000000131800081518000827
:1000400065180008691800086D1800087118000884
:1000500075180008791800087D1800088118000834
:1000600085180008891800088D18000891180008E4
:1000700095180008991800089D180008A118000894
:10008000A5180008A9180008AD180008B118000844
:10009000B5180008B9180008BD180008C1180008F4
:1000A000C5180008C9180008CD180008D1180008A4
:1000B000D5180008D9180008DD180008E118000854
:1000C000E5180008E9180008ED180008F118000804
:1000D000F5180008F9180008FD18000801190008B3
:1000E00005190008091900080D190008F8B50400E1
:1000F00025D004F13C05697821B9002028702046FC
:1001000000F0A1FC242169702068026852085200A6
:1001100002602068016841F40041016020680268C3
:1001200022F40042026000F0ECFE01466068DFF855
:10013000DC24904205D2DFF8D834994205D2012060
:10014000F2BDDFF8D0048142F9D32068DFF8C8346B
:100150004668B1FBF3F3B60943EA861646602668A3
:10016000376A6068904206D34FF4967043434FF469
:100170007A70B3FBF0F35B1CBF0943EA8713336269
:10018000491E2368DE696768974206D27F0000F047
:1001900043F8042913D2042111E0A06820B907EB29
:1001A000470700F039F805E01920474300F034F81C
:1001B00041F4804108050CBF012141F40041DFF802
:1001C000680406400E43DE6122681368E169206A14
:1001D00023F0C0030B43034313602268DFF84C0491
:1001E000936821690340E0680B43034393602168EF
:1001F000CA68A3696069120A034343EA0222CA601B
:100200002068016841F00101016000206860202140
:1002100069702063A870F2BDB1FBF7F1491CC1F30E
:100220000B0170472DE9F84304460E4615469946E2
:1002300000F094FE00F072FA06D1CDF8008000F0D4
:10024000EDF900F03CFA002876D13878012873D017
:1002500000F083F921207870102100F0CEF900F031
:1002600087FAE16A082918BF012904D081421CBF1E
:10027000206B122801D100F069FACDF8008000222D
:10028000089D2B4600F019FA30B100F05BFA4CD50E
:100290004FF40070786048E02069B0F5804F08BFE7
:1002A00006F0FE060FD0F109206801F0060141F0CA
:1002B000F001016143462A46DFF8741300F065F946
:1002C000002832D1F6B22068DFF868130661434691
:1002D0002A4600F05AF9002827D100F025FA89694A
:1002E0000091009A208D002821D04246294600F036
:1002F00046FAA8B900F075F9401E208521684A69C0
:10030000530706D580B220B1606A02780A6100F016
:100310004BF942462946204600F0F0FA0028E1D089
:100320007868042801D100F0A2F9012005E000F06E
:100330009EF900F00BF900E00220BDE8F2832DE900
:10034000F84F04460020009000F038F900F03BF927
:1003500005D1009600F062F900F0B1F9002840F0F4
:10036000F2803878012800F0EE8000F0F6F82220C4
:1003700078701021B97000207860C4F82490A4F837
:100380002A80608D00F0F4F9E16A22681368082978
:1003900043F4806318BF0129136004D081421CBF5D
:1003A000206B112801D100F0D1F900960022DDF870
:1003B00028904B4600F081F94FF4007A30B100F0FC
:1003C000C1F948BFC7F804A00120BDE02069DFF8EB
:1003D0006482B0F5804F05D1206845F00105EDB28B
:1003E000056127E0E809226800F0060B4BF0F001F8
:1003F000116133464A46DFF8381200F0C6F800288B
:10040000E2D12068EDB2056100F0BCF80028DBD134
:1004100000904B4600F0DEF821680A6842F48072D2
:100420000A60009600F048F90028C8D120684BF017
:10043000F101016100F0A6F80028C5D1208D10B9A6
:1004400000F001F916E0012802D100F04CF905E0B6
:1004500002282068016804D100F034F90A6062B60D
:1004600008E000F095F805E000F087F80028ABD12F
:1004700000F014F9208D002862D0042853D20128FE
:10048000F2D00228DFF8B01100964B4615D10022B9
:1004900000F015F9002897D172B600F0E8F820684E
:1004A0000169606A0170616A208D4A1C411E6262A6
:1004B000218500F053F962B6DAE7002200F0FFF878
:1004C0000028E8D100F0CCF84FF47A7E206801696A
:1004D000606A0170616A208D4A1C411E626221853A
:1004E000608DDFF83422411E618519211368B3FB4A
:1004F000F1F1B1FBFEFE232000FB0EF0009000F0B6
:1005000005F920B1216848694107F8D504E000F0F9
:1005100010F962B6387057E700F024F921680A69CB
:10052000606A0270BFE700F028F80028F3D100F0FD
:10053000A4F89FD580B203289AD100F07FF897E7FE
:1005400000F004F800E00220BDE8F28F202078706F
:100550000021B9700020387070470121397020687F
:100560000268D10703D4026842F0010202602068E9
:10057000016821F400610160704732464946204617
:1005800000F0EBB933464A464146204600F02DB90B
:1005900041F4806101600020009021684A69009266
:1005A0008969009100987047606A411C6162608DA2
:1005B000411E6185208D411E218570470D46914663
:1005C000984600F0CBBC04F13C070646787820281A
:1005D0007047009021684A690092896900910098EB
:1005E0007047606A226801781161606A411C61622B
:1005F000608D411E6185208D7047B9700020786044
:100600006562A4F82A90608D70470000A186010001
:1006100080841E0000093D0040420F001923012282
:10062000DFF83411704700000030FFFF007CFFFF4F
:10063000080001000200010004000100196821F413
:10064000806119607047009021684A690092896949
:100650000091009821680A6842F400720A607047AD
:100660002068016821F48061016072B670472068DB
:10067000016841F400710160704720680169606A97
:100680000170616A208D4A1C401E62622085618D66
:100690004A1E6285236859694A07704720680169C4
:1006A000606A0170616A208D4A1C411E6262218568
:1006B000608D411E6185704700224FF00111204678
:1006C00000F05FB841F40061016072B60020009054
:1006D00021684A69009289690091009821680A6836
:1006E00022F4806270472068016821F48061016013
:1006F00072B60020009021684A69009289690091D1
:10070000009821680A6842F4007270470098401E01
:1007100000900098704700000C00002004F13C0796
:100720008046787820287047009021684A690092B6
:100730007047206320217970B870796841F02001FA
:100740007960704720680168CA05704720680168B1
:1007500041F480710160704702001000608D411EFD
:100760006185704721680A6842F400720A60704728
:1007700020850148E06270470000FFFF41462046A7
:100780009AE02DE9F8430F46089C064690469946A4
:100790003D0C3068E9B201290CBF4069806900F066
:1007A00071F80CBF0120002040451CD119F1010F48
:1007B000EFD000F0D3FB001B814502D3B9F1000F4D
:1007C000E7D13068E9B201290CBF4069806900F0C7
:1007D00059F80CBF012000204045DAD100F05EF846
:1007E0000120BDE8F2830020FBE72DE9F0410F4630
:1007F0000646144698463D0CE8B201281CD13068E4
:100800004169394089B2B8B281421CD03168486927
:1008100041051AD5306800F03AF83268506100217D
:1008200006F13C003163202242708170426842F040
:100830000402426001701DE030688169394089B26C
:10084000B8B28142E2D1002015E014F1010FD3D0FB
:1008500000F084FBA0EB0800844201D3002CCBD134
:10086000E9B23068012908D1406900F00BF8C6D020
:1008700000F014F80120BDE8F081806900F002F872
:10088000DAD0F5E7384080B2B9B2884270470268E2
:1008900042F4007202606FF48060704700203063A1
:1008A000202106F13C00002241708270416841F035
:1008B000200141600270704770B505460C4616462F
:1008C00028684169080617D4284600F071F818B95D
:1008D00014F1010FF4D001E0012070BD00F03EFBE7
:1008E000801B844201D3002CEAD1286841690806A4
:1008F000E6D400F025F8EFE7002070BD70B505469E
:100900000C46164628684169480717D4284600F067
:100910004FF818B914F1010FF4D001E0012070BDB7
:1009200000F01CFB801B844201D3002CEAD1286814
:1009300041694807E6D400F003F8EFE7002070BDF6
:10094000002105F13C002963202242708170426839
:1009500042F0200242600170704770B505460C46B7
:100960001646286841694A0620D44169CA060FD54F
:100970006FF01001416100202863202105F13C0047
:10098000002241708270416841600270012070BD98
:1009900000F0E4FA801B844201D3002CE1D12868E6
:1009A00041694806DDD4FFF7CBFFEFE7002070BDBB
:1009B00010B501684A6953050DD56FF480644C6128
:1009C000002101633C30202343708170436843F071
:1009D00004034360017012F4806018BF0120C0B2AC
:1009E00010BD0EE002684368024408305FEAC37C31
:1009F00044BF4B445B1E52F804CB43F804CB091FA1
:100A0000F9D150F8041B0029ECD17047234881B07C
:100A1000016841F001010160026802F001020092E8
:100A20000099426842F080524260406800F0805075
:100A3000009000981A48016821F0E06141F00071CF
:100A4000016001B0704718B585B00446102200213E
:100A500001A800F089FA2168124881421CD10F4C8C
:100A6000216841F008012160C021206800F00800E1
:100A70000090122200980C480191029203210491E7
:100A800001A900F07BFA606840F4001060606068C3
:100A900000F400100090009806B010BD181002403D
:100AA0000400014000540040000C01402DE9F843CF
:100AB000040016D02078DFF86064C10713D5706891
:100AC00000F00C00042807D0706800F00C00082823
:100AD00041D17068C1033ED53068810303D5606899
:100AE000002800F064812078DFF83C74810719D574
:100AF000706810F00C0F07D0706800F00C00082828
:100B000061D17068C1035ED43068810703D5206964
:100B1000012840F04C813168606921F0F80141EA18
:100B2000C00131602178080740F18180A069DFF8B9
:100B3000FC13002800F0A68001220A6000F00EFAE3
:100B40000546706A810763D400F008FA401B02284A
:100B5000F7D903202EE16068B0F5803F04D13068FA
:100B600040F48030306014E008B930680AE0B0F535
:100B7000A02F306806D140F480203060316841F405
:100B8000803105E020F480303060316821F480212C
:100B90003160606858B100F0E1F9054630688103C2
:100BA000A1D400F0DBF9401B6528F7D3D1E700F0B2
:100BB000D5F905463068810395D500F0CFF9401B83
:100BC0006528F7D3C5E72069A8B10121396000F095
:100BD000C5F905463068810705D400F0BFF9401B10
:100BE0000228F7D9B5E73068616920F0F80040EADB
:100BF000C100306096E7386000F0B0F90546316812
:100C000088078FD500F0AAF9401B0228F7D9A0E782
:100C1000DFF808030168C9084FF47A72B1FBF2F2F9
:100C2000009200BF0098411E00280091F9D1207861
:100C300041076ED5F0690025C10009D4F06940F084
:100C40008050F0610125F06900F08050009000981C
:100C5000DFF8DC82D8F80000C10520D4D8F8000005
:100C600040F48070C8F8000000F078F98146D8F8A8
:100C70000000C10513D400F071F9A0EB090065284C
:100C8000F5D366E7086000F069F90546706A8107E8
:100C9000CDD500F063F9401B0228F7D959E7E06889
:100CA000012808D008B9306A09E00528306A06D161
:100CB00040F004003062306A40F0010005E0400876
:100CC00040003062306A20F00400306241F289381E
:100CD000E06860B100F042F98146306A810713D4C0
:100CE00000F03CF9A0EB09004045F6D331E700F0F5
:100CF00035F98146306A810706D500F02FF9A0EB5F
:100D000009004045F6D324E71DB1F06920F080507A
:100D1000F061E06900284CD0716801F00C010829ED
:100D200038D002282AD100F047F805463068810102
:100D300005D500F013F9401B0228F7D909E7206A0E
:100D4000B0F5803F05D17168A06821F400310143FE
:100D500071607268206A616A22F4741202430A4365
:100D60007260012000F029F804463068810120D427
:100D700000F0F4F8001B0228F7D9EAE600F01CF8AE
:100D800004463068810114D500F0E8F8001B022801
:100D9000F7D9DEE601280AD07068226A00F48031B3
:100DA000914202BF00F47010616A884201D00120B4
:100DB00000E00020BDE8F2830020386600F0CEB8E5
:100DC0002DE9F041040088464ED05A4E00F077F8E5
:100DD00002D200F06FF847D120684F4D810712D53D
:100DE000400703D5696841F4E06169602078010734
:100DF00003D5686840F4605068606968A06821F0B5
:100E0000F001014369602178C80725D56068012891
:100E100002D129688A0303E00228296802D18A01E5
:100E200002D421E08A071FD56968890840EA810059
:100E3000686000F093F807466868616800F00C008D
:100E4000B0EB810F08D000F089F8C01B41F2893166
:100E50008842F1D303202BE0306800F00700804582
:100E600004D200F027F801D0012021E020784107CA
:100E700005D56A68E06822F4E06202436A6021787E
:100E8000080706D56968206921F4605141EAC0016C
:100E9000696000F019F86A682749204BC2F3031211
:100EA000895CC84018601F48006800F041F90020C4
:100EB000BDE8F0813168C90848EAC1013160306895
:100EC00000F00700404570471C4915480A6802F0C9
:100ED0000C03082B00D0704710B500BF1AA4C2F352
:100EE0008343D203E35C08D5096858431AA3C1F3CE
:100EF00040415A5CB0FBF2F010BD1846104948431F
:100F000010BD06480D4A006813680E49C3F302225B
:100F1000FFE7895CC8407047001002400C000020C9
:100F200000127A0008000020000042428004424281
:100F300000700040002002402C18000804100240FD
:100F400000093D005C1800080203040506070809B3
:100F50000A0B0C0D0E0F1010010200000148406832
:100F6000704700BF0000002010B5044610460A4636
:100F70000146204600F0FCF8204610BD2DE9F84758
:100F80004FF0000E00245D4A5D4BDFF878814FF092
:100F90000F0982460CE017683840106006E0556083
:100FA0004D68ED03F7D51068074317600EF1010E89
:100FB0000F6837FA0EF000F09F80012000FA0EF65D
:100FC0003740B742F2D1486838B301281AD0022816
:100FD0001DD003282ED0112816D012281AD04A4D21
:100FE000A8421CBF494DA84217D0494DA8421CBF7A
:100FF000484DA84211D0484DA8421CBF474DA842B9
:101000000BD018E0CC6816E0CC68241D13E0CC6847
:10101000083410E0CC680C340DE0886808B904246A
:1010200009E0012819BF0824CAF814600824CAF886
:10103000106000E00024B7F5807F03D250464FEAED
:101040008E0C05E0AEF108050AF104004FEA850CAC
:10105000056809FA0CF6B54304FA0CF63543056049
:101060004868C000A2D5D8F8000040F00100C8F8D8
:101070000000D8F8005005F0010500954FEA8E05F4
:1010800000984FEA9E0053F8206005F00C0C09FA16
:101090000CF526EA0505224EB24508BF00260ED003
:1010A000204EB24508BF012609D01F4EB24508BFE9
:1010B000022604D01D4EB2450CBF0326042606FAB4
:1010C0000CF6354343F82050F8434D68ED0295681F
:1010D0004CBF3D43054095604D68AD02D5684CBF9F
:1010E0003D430540D5604D685668AD034CBF47EAA7
:1010F000060500EA060552E7BDE8F1870004014055
:1011000008000140181002400000111000001210E9
:1011100000002110000022100000311000003210E9
:1011200000080140000C0140001001400014014083
:1011300038B50D4D0D4B2A7804464FF47A71186876
:10114000B1FBF2F2B0FBF2F000F07DF850B9102CD8
:1011500008D2002221464FF0FF3000F057F8AC6073
:10116000002032BD012032BD000000200C00002014
:1011700062F30F2262F31F42401810F0030308D0FD
:10118000C91A1FD3DB0748BF00F8012D28BF20F87C
:10119000022D130030B414461546103928BF20E93B
:1011A0003C00FAD8490728BF20E90C0048BF40F8A6
:1011B000042D890028BF20F8022D48BF00F8012D1A
:1011C00030BC7047C91818BF00F8012DCB0728BFE5
:1011D00000F8012D704700000901020002D42448E4
:1011E00081547047234B02F00F021A4402F8041C8A
:1011F0007047214B19684FF6FF020002114000F4BE
:10120000E06008431D4908431860704770B51A4BE9
:101210001C68C4F302230124C3F10705052D2EBF6A
:101220000F2504FA05F56D1E1E1D072E34BF002381
:10123000DB1E2940994004FA03F3BDE870405B1EB1
:101240001A401143C8E710B5401EB0F1807F01D3AA
:10125000012010BD0A4C60600F214FF0FF30FFF7F6
:10126000BBFF0021A16007202060002010BD00000E
:1012700000E400E018ED00E00CED00E00000FA05ED
:1012800010E000E0F0B540F2FF7581EA030C0CF0CD
:10129000004C15EA11541DBF15EA1357AC42AF427A
:1012A000E5E0BC41C1F31301C3F31303801A994174
:1012B00043F4801304D2641E001849418018594138
:1012C000C90241EA5051B1FBF3F603FB1611A2FB30
:1012D0000675D7EBC020A94102D2761E801859416D
:1012E000C90241EA5051B1FBF3FE03FB1E11A2FB00
:1012F0000E75D7EBC020A94103D2AEF1010E8018C4
:101300005941890241EA9051760546EA8E2EB1FB99
:10131000F3F603FB1611A2FB0675D7EB8020A9415B
:1013200002D2761E80185941C90241EA50514EEA54
:10133000060EB1FBF3F603FB1611A2FB0675D7EB05
:10134000C020A94102D2761E80185941C90241EA43
:101350005051B1FBF3F703FB1711A2FB0735D3EB99
:10136000C020A94167F100070CBF004247F0010708
:1013700066F3D5274FEA1E31B80814F5806412DDF4
:10138000BD0775F1004250EB0E5051EB045111F5C1
:10139000801F5CBF41EA0C01F0BD4CF07F6141F061
:1013A000E0410020F0BDBD076D0840EA0E5041F459
:1013B0008011D4F10104B4F120060ADAC4F1200648
:1013C0000200E04001FA06F3E1401843B240154341
:1013D0000EE0342C13DCC6F1200445EA40056D080C
:1013E00020FA06F2154321FA06F0A1400D43002130
:1013F00075F1004250F1000051EB0C01F0BD0020EE
:101400005FEA0C01F0BDCFB992185B41B3FA83F7E4
:1014100004BFB2FA82F6BF190B3FB7F120062FBF07
:1014200002FA06F3BB40C7F1200622FA06F638BFDF
:101430003343BA401CB1E419641E33E77F4231F0F4
:101440000041B1FA81F404BFB0FA80F6A4190B3C54
:10145000B4F120062FBF00FA06F1A140C4F1200626
:1014600020FA06F638BF3143A0403C1B1AE7AC42D5
:101470001ABF05EA1357AF4212E050EA41061CBFFB
:1014800052EA4306BFE750EA4107304661461CBFB7
:1014900041EA0551F0BD52EA430C08BFC143F0BD1B
:1014A00000204FF4001616EB410F98BF16EB430FC8
:1014B00008BF16EB410F24BFC14305E016EB430FF5
:1014C0000CBF61464CEA0551F0BD00001CB500F0B0
:1014D0007DF800F045F81E481E4C016841F02001DF
:1014E0000160026802F0200200920099026842F056
:1014F00004020260036803F0040300930099026889
:10150000154942F0080202600068144A00F0080021
:101510000090009821600020A06000214FF48040DE
:1015200020616260E1606161A161E1612162204648
:10153000FEF7DCFD08B100F046F800F059F804F1C0
:10154000540000F070F84FF47A7000F091F8F6E76C
:10155000181002401000002000540040A086010036
:1015600000B58FB02822002105A8FFF7FDFC14224A
:1015700000216846FFF7F8FC4FF480310022069105
:1015800007920D9101200590099002224FF4E0117D
:101590000C920E9105A8FFF789FA08B172B6FEE722
:1015A000022101910F204FF48061009000220391ED
:1015B0000292049202216846FFF702FC08B172B65B
:1015C000FEE70FB000BD72B6FEE7000080B5074829
:1015D000016841F0100101600320FFF70AFE0F20AF
:1015E000FFF7A6FDFFF712FA002002BD002002401F
:1015F0003EB501208DF804004FF0FF351A4C00F085
:101600000BF807228DF8042000F006F810208DF862
:10161000040000F001F837BD0095012301AA46211E
:101620002046FEF7FFBD3EB504464FF0FF30009068
:10163000022301AA46210C48FEF781FE05000FD1C6
:101640009DF804109DF8050040EA012000F024F800
:101650004FF03332054BFFF715FE00F02BF82060FA
:10166000280018BF01203EBD100000203333F33F97
:1016700038B50446FFF772FC14F1010F054602D09D
:10168000044908780419FFF769FC401BA042FAD30B
:1016900031BD00BF0000002050B1B0FA80F1884099
:1016A000C91CC1F58461090501EBD02140057047D3
:1016B0000146704701F000428B1AA3F16051B1F569
:1016C000801F0ADBB1F17F6F1FD242EAC102C10065
:1016D00071F1004142EB507070470B15C3F10903E3
:1016E000212B10D2890241EA905180020128494100
:1016F00041F0004121FA03F0C3F12003994071F158
:10170000004150417047100070476FF0000013EB2C
:10171000103F5CBF000E42EAC050704730B4002555
:1017200012E050F8042BD30744BF4A44521E091F4D
:10173000042942F8045BFAD213468C0744BF158093
:101740009B1CC90748BF1D7050F8041B0029E8D135
:1017500030BC704710B5074979441831064C7C44B9
:10176000163404E00A68081D114488470146A14266
:10177000F8D110BD0800000028000000A1FFFFFF05
:1017800058000000100000200000000057F2FFFF8A
:1017900010000000B8000000000000200000000061
:1017A00000F00DF8002801D0FFF7D4FFAFF3008060
:1017B0000020AFF30080FFF789FE00F002F801205F
:1017C000704700F001B800000746384600F002F804
:1017D000FBE7000080B5AFF30080024A110018203B
:1017E000ABBEFBE7260002000548014603B468468D
:1017F00080F30988AFF30080AFF30080FFF7D0FFDC
:10180000A5EDF5FEFEE7FEE7FEE7FEE7FEE7704723
:101810007047704700F000B802494A68087882189B
:101820004A60704700000020704700000000000080
:101830000000000001020304060708090148804770
:101840000148004729180008E917000801000000B6
:10185000000000001000000000127A0000000000EC
:1018600001020304FFF7FEBFFFF7FEBFFFF7FEBF55
:10187000FFF7FEBFFFF7FEBFFFF7FEBFFFF7FEBF9C
:10188000FFF7FEBFFFF7FEBFFFF7FEBFFFF7FEBF8C
:10189000FFF7FEBFFFF7FEBFFFF7FEBFFFF7FEBF7C
:1018A000FFF7FEBFFFF7FEBFFFF7FEBFFFF7FEBF6C
:1018B000FFF7FEBFFFF7FEBFFFF7FEBFFFF7FEBF5C
:1018C000FFF7FEBFFFF7FEBFFFF7FEBFFFF7FEBF4C
:1018D000FFF7FEBFFFF7FEBFFFF7FEBFFFF7FEBF3C
:1018E000FFF7FEBFFFF7FEBFFFF7FEBFFFF7FEBF2C
:1018F000FFF7FEBFFFF7FEBFFFF7FEBFFFF7FEBF1C
:10190000FFF7FEBFFFF7FEBFFFF7FEBFFFF7FEBF0B
:04000005080017E9EF
:00000001FF
