:020000040800F2
:10000000B8040020BD1900088519000887190008E8
:10001000891900088B1900088D19000800000000DC
:100020000000000000000000000000008F19000820
:1000300091190008000000009319000895190008A4
:10004000E5190008E9190008ED190008F119000880
:10005000F5190008F9190008FD190008011A00082F
:10006000051A0008091A00080D1A0008111A0008DC
:10007000151A0008191A00081D1A0008211A00088C
:10008000251A0008291A00082D1A0008311A00083C
:10009000351A0008391A00083D1A0008411A0008EC
:1000A000451A0008491A00084D1A0008511A00089C
:1000B000551A0008591A00085D1A0008611A00084C
:1000C000651A0008691A00086D1A0008711A0008FC
:1000D000751A0008791A00087D1A0008811A0008AC
:1000E000851A0008891A00088D1A0008F8B504005E
:1000F00025D004F13C05697821B9002028702046FC
:1001000000F0C1FC24216970206802685208520086
:1001100002602068016841F40041016020680268C3
:1001200022F40042026000F020FF01466068DFF820
:100130003021904205D2DFF82C31994205D20120BE
:10014000F2BDDFF824018142F9D32068DFF81C31C9
:100150004668B1FBF3F3B60943EA861646602668A3
:10016000376A6068904206D34FF4967043434FF469
:100170007A70B3FBF0F35B1CBF0943EA8713336269
:10018000491E2368DE696768974206D27F0000F047
:1001900043F8042913D2042111E0A06820B907EB29
:1001A000470700F039F805E01920474300F034F81C
:1001B00041F4804108050CBF012141F40041DFF802
:1001C000C40106400E43DE6122681368E169206ABB
:1001D00023F0C0030B43034313602268DFF8A80138
:1001E000936821690340E0680B43034393602168EF
:1001F000CA68A3696069120A034343EA0222CA601B
:100200002068016841F00101016000206860202140
:1002100069702063A870F2BDB1FBF7F1491CC1F30E
:100220000B017047202078700021B97000203870D1
:10023000704732464946204600F0C4BB33464A4622
:100240004146204600F006BB41F480610160002079
:10025000009021684A69009289690091009870476E
:10026000A186010080841E0000093D0040420F006D
:100270002DE9FC47064600F089F800F06FF864D1DC
:10028000009400F079F8304600F0B0FA00285CD114
:100290003878012859D000F07EF84146D6F800E0C1
:1002A0000C9D0B98DDF828C0DEF8008028F400686B
:1002B000CEF800804FF0210E87F801E04FF04008A3
:1002C00087F802804FF0000EC7F804E0C6F824C09B
:1002D00070855346708D30854A46DFF85803F062CA
:1002E00001940095304600F0C2F9002826D106E0BE
:1002F000716A0A78026100F037F8411E7185308D0D
:1003000088B122462946304600F00BFB88B9706A56
:1003100032680178116100F027F800F019F8EED585
:1003200089B20029E4D122462946304600F01BFB61
:1003300030B17868042801D100F050FA012005E0BE
:1003400000F04CFAFFF76EFF00E00220BDE8F687F0
:10035000421E7285306842695307704706F13C07B8
:100360000446787820287047706A411C7162308D8D
:10037000411E3185708D704719230122DFF8D81294
:10038000704700000030FFFF007CFFFF8846914669
:100390009A4600F02BBE0121397030680268D107FF
:1003A00003D4026842F00102026070472DE9FC4765
:1003B000044600200090FFF7E9FF04F13C060546E3
:1003C0007078202805D10095FFF7D6FF00F004F9DA
:1003D000002840F0B1803078012800F0AD80012184
:1003E000317000F0C8F84146D4F800E00C9F0B983B
:1003F000DDF828C0DEF8008028F40068CEF8008020
:100400004FF0220E86F801E04FF0400886F8028097
:100410004FF0000EC6F804E0C4F824C060855346CF
:10042000608D20854A4600F01FF90195009720460F
:1004300000F06BF9002867D1208D10B900F087F823
:1004400018E0012802D100F0DBF805E0022820685E
:10045000016804D100F0C3F80A6062B60AE0FFF751
:10046000F3FE07E02A463946FFF7E5FE00284BD1A8
:1004700000F0A1F8208D002857D0042846D201288A
:10048000F0D002282E4900953B460BD1002200F007
:10049000A3F8002838D172B600F076F800F08BF897
:1004A00062B6E5E7002200F097F868BB00F05CF860
:1004B0004FF47A7E20680169606A0170616A208D5C
:1004C0004A1C411E62622185608D594A411E618528
:1004D00019211368B3FBF1F1B1FBFEFE232000FBF1
:1004E0000EF0009000F09FF820B1216848694107A4
:1004F000F8D5D1E7206320217170B070716841F0A8
:100500002001716062B63070012016E02A4639463B
:10051000FFF791FE0028F7D100F03CF8AAD580B291
:100520000328A5D100F00EF8A2E72020707000216A
:10053000B1700020307000E00220BDE8F6870000B6
:1005400004000100196821F480611960704700906F
:1005500021684A69009289690091009821680A68B7
:1005600042F400720A6070472068016821F48061DB
:10057000016072B6704720680268D10703D4026830
:1005800042F00102026070472068016841F4007186
:100590000160704720680169606A0170616A208D9E
:1005A0004A1C401E62622085618D4A1E6285236856
:1005B00059694A07704720680169606A0170616A79
:1005C000208D4A1C411E62622185608D411E61851D
:1005D000704700224FF00111204600F007B941F4A6
:1005E0000061016072B60020009021684A690092A3
:1005F00089690091009821680A6822F48062704736
:100600002068016821F48061016072B600200090CA
:1006100021684A69009289690091009821680A68F6
:1006200042F4007270470098401E00900098704796
:100630000C0000200000FFFF009021684A69009232
:10064000704720680168CA0570473068016841F446
:10065000807101607047000002001000016841F4E1
:1006600080610160704720852248E06270472DE973
:10067000F84304462068DDF82080099F8946016818
:1006800041F4807115461E46016000974346FFF70E
:10069000A0FF38B1FFF7D5FF44BF4FF400702064CE
:1006A000032025E0206809F0FE0101613B46424637
:1006B000DFF83411FFF7C5FDA0B9FFF7BDFF00F06B
:1006C0001BF800F020F840B9012E0DD02168280A4F
:1006D00008613A4600F016F830B1206C042801D1C8
:1006E000FFF752FF012003E02068EDB20561002012
:1006F000BDE8F2830000FFFF3A4689690091414658
:1007000000987047414620460BE12DE9F84F054619
:100710002868DDF828800B9F0C46FFF79FFF1646E0
:100720002868016841F480719946016000F04FF833
:1007300000284FF4007A2ED12968DFF8ACB004F01D
:10074000FE00086100F03EF8002834D100902968CE
:100750004A690092FFF7D0FF00F032F870B9B9F1A2
:10076000010F05D02968300A086100F027F828B980
:100770002868F6B2066100F021F830B1286C042830
:1007800019D1286800F02BF815E02868FFF75EFF04
:1007900000F01DF838B128680168CA0548BFC5F8DF
:1007A00040A0032008E0286844F00104E4B204619A
:1007B00000F008F800B10120BDE8F28F3A4641464A
:1007C0002846AEE03B4642465946284642E000975E
:1007D000434600224FF00111284607E030680168C7
:1007E00041F4007101607047020001002DE9F843F7
:1007F0000F46089C0646904699463D0C3068E9B283
:1008000001290CBF4069806900F071F80CBF01201C
:10081000002040451CD119F1010FEFD000F0E6FB9C
:10082000001B814502D3B9F1000FE7D13068E9B26E
:1008300001290CBF4069806900F059F80CBF012004
:1008400000204045DAD100F05EF80120BDE8F283D7
:100850000020FBE72DE9F0410F4606461446984676
:100860003D0CE8B201281CD130684169394089B299
:10087000B8B281421CD03168486941051AD5306848
:1008800000F03AF832685061002106F13C00316313
:10089000202242708170426842F00402426001707E
:1008A0001DE030688169394089B2B8B28142E2D135
:1008B000002015E014F1010FD3D000F097FBA0EB5E
:1008C0000800844201D3002CCBD1E9B23068012961
:1008D00008D1406900F00BF8C6D000F014F80120F0
:1008E000BDE8F081806900F002F8DAD0F5E7384021
:1008F00080B2B9B288427047026842F40072026066
:100900006FF48060704700203063202106F13C00C6
:10091000002241708270416841F020014160027004
:10092000704770B505460C461646286841690806AA
:1009300017D4284600F071F818B914F1010FF4D05B
:1009400001E0012070BD00F051FB801B844201D307
:10095000002CEAD1286841690806E6D400F025F8A1
:10096000EFE7002070BD70B505460C4616462868B6
:100970004169480717D4284600F04FF818B914F118
:10098000010FF4D001E0012070BD00F02FFB801BAF
:10099000844201D3002CEAD1286841694807E6D493
:1009A00000F003F8EFE7002070BD002105F13C00E6
:1009B0002963202242708170426842F02002426026
:1009C0000170704770B505460C46164628684169A7
:1009D0004A0620D44169CA060FD56FF01001416163
:1009E00000202863202105F13C0000224170827024
:1009F000416841600270012070BD00F0F7FA801B71
:100A0000844201D3002CE1D1286841694806DDD435
:100A1000FFF7CBFFEFE7002070BD10B501684A6912
:100A200053050DD56FF480644C61002101633C30A7
:100A3000202343708170436843F0040343600170D6
:100A400012F4806018BF0120C0B210BD2C4881B0E4
:100A5000016841F001010160026802F001020092A8
:100A60000099426842F080524260406800F0805035
:100A7000009000982348016821F0E06141F0007186
:100A8000016001B0704718B585B0044610220021FE
:100A900001A800F0B1FA21681B4881421CD1184C12
:100AA000216841F008012160C021206800F00800A1
:100AB000009012220098154801910292032104919E
:100AC00001A900F0A3FA606840F40010606060685B
:100AD00000F400100090009806B010BD81B00068CE
:100AE000B0F1804F09D10A48016841F0010101606D
:100AF000006800F001000090009801B0704700000D
:100B0000181002400400014000540040000C014055
:100B10001C1002402DE9F843040016D02078DFF8BD
:100B20006064C10713D5706800F00C00042807D07A
:100B3000706800F00C00082841D17068C1033ED5F0
:100B40003068810303D56068002800F06481207854
:100B5000DFF83C74810719D5706810F00C0F07D0CE
:100B6000706800F00C00082861D17068C1035ED481
:100B70003068810703D52069012840F04C81316835
:100B8000606921F0F80141EAC0013160217808076D
:100B900040F18180A069DFF8FC13002800F0A680F6
:100BA00001220A6000F022FA0546706A810763D4C8
:100BB00000F01CFA401B0228F7D903202EE16068E0
:100BC000B0F5803F04D1306840F48030306014E0EC
:100BD00008B930680AE0B0F5A02F306806D140F4BB
:100BE00080203060316841F4803105E020F48030AD
:100BF0003060316821F480213160606858B100F0C4
:100C0000F5F9054630688103A1D400F0EFF9401BE7
:100C10006528F7D3D1E700F0E9F90546306881038C
:100C200095D500F0E3F9401B6528F7D3C5E72069A7
:100C3000A8B10121396000F0D9F905463068810773
:100C400005D400F0D3F9401B0228F7D9B5E7306886
:100C5000616920F0F80040EAC100306096E7386032
:100C600000F0C4F90546316888078FD500F0BEF959
:100C7000401B0228F7D9A0E7DFF808030168C9087C
:100C80004FF47A72B1FBF2F2009200BF0098411E5D
:100C900000280091F9D1207841076ED5F069002530
:100CA000C10009D4F06940F08050F0610125F0697D
:100CB00000F0805000900098DFF8DC82D8F8000047
:100CC000C10520D4D8F8000040F48070C8F80000B6
:100CD00000F08CF98146D8F80000C10513D400F06B
:100CE00085F9A0EB09006528F5D366E7086000F0F8
:100CF0007DF90546706A8107CDD500F077F9401B74
:100D00000228F7D959E7E068012808D008B9306A05
:100D100009E00528306A06D140F004003062306AEC
:100D200040F0010005E0400840003062306A20F0E9
:100D30000400306241F28938E06860B100F056F991
:100D40008146306A810713D400F050F9A0EB090006
:100D50004045F6D331E700F049F98146306A810712
:100D600006D500F043F9A0EB09004045F6D324E78F
:100D70001DB1F06920F08050F061E06900284CD08E
:100D8000716801F00C01082938D002282AD100F03E
:100D900047F805463068810105D500F027F9401B6A
:100DA0000228F7D909E7206AB0F5803F05D17168BC
:100DB000A06821F40031014371607268206A616AA1
:100DC00022F4741202430A437260012000F029F8F1
:100DD00004463068810120D400F008F9001B022885
:100DE000F7D9EAE600F01CF804463068810114D512
:100DF00000F0FCF8001B0228F7D9DEE601280AD033
:100E00007068226A00F48031914202BF00F47010D1
:100E1000616A884201D0012000E00020BDE8F28331
:100E20000020386600F0E2B82DE9F0410400884661
:100E30004ED05A4E00F077F802D200F06FF847D14A
:100E400020684F4D810712D5400703D5696841F4EA
:100E5000E06169602078010703D5686840F460505C
:100E600068606968A06821F0F00101436960217839
:100E7000C80725D56068012802D129688A0303E0E4
:100E80000228296802D18A0102D421E08A071FD5ED
:100E90006968890840EA8100686000F0A7F80746A1
:100EA0006868616800F00C00B0EB810F08D000F0BA
:100EB0009DF8C01B41F289318842F1D303202BE019
:100EC000306800F00700804504D200F027F801D018
:100ED000012021E02078410705D56A68E06822F406
:100EE000E06202436A602178080706D569682069D4
:100EF00021F4605141EAC001696000F019F86A68A4
:100F00002749204BC2F30312895CC84018601F4870
:100F1000006800F055F90020BDE8F0813168C9088B
:100F200048EAC1013160306800F007004045704771
:100F30001C4915480A6802F00C03082B00D07047C2
:100F400010B500BF1AA4C2F38343D203E35C08D5F3
:100F5000096858431AA3C1F340415A5CB0FBF2F050
:100F600010BD18461049484310BD06480D4A006898
:100F700013680E49C3F30222FFE7895CC84070473B
:100F8000001002400C00002000127A00080000202F
:100F900000004242800442420070004000200240B3
:100FA000AC1900080410024000093D00DC190008DB
:100FB00002030405060708090A0B0C0D0E0F10109A
:100FC00001020EE002684368024408305FEAC37C15
:100FD00044BF4B445B1E52F804CB43F804CB091FBB
:100FE000F9D150F8041B0029ECD170470148406842
:100FF000704700BF0000002010B5044610460A46A6
:101000000146204600F0FCF8204610BD2DE9F847C7
:101010004FF0000E00245D4A5D4BDFF878814FF001
:101020000F0982460CE017683840106006E05560F2
:101030004D68ED03F7D51068074317600EF1010EF8
:101040000F6837FA0EF000F09F80012000FA0EF6CC
:101050003740B742F2D1486838B301281AD0022885
:101060001DD003282ED0112816D012281AD04A4D90
:10107000A8421CBF494DA84217D0494DA8421CBFE9
:10108000484DA84211D0484DA8421CBF474DA84228
:101090000BD018E0CC6816E0CC68241D13E0CC68B7
:1010A000083410E0CC680C340DE0886808B90424DA
:1010B00009E0012819BF0824CAF814600824CAF8F6
:1010C000106000E00024B7F5807F03D250464FEA5D
:1010D0008E0C05E0AEF108050AF104004FEA850C1C
:1010E000056809FA0CF6B54304FA0CF635430560B9
:1010F0004868C000A2D5D8F8000040F00100C8F848
:101100000000D8F8005005F0010500954FEA8E0563
:1011100000984FEA9E0053F8206005F00C0C09FA85
:101120000CF526EA0505224EB24508BF00260ED072
:10113000204EB24508BF012609D01F4EB24508BF58
:10114000022604D01D4EB2450CBF0326042606FA23
:101150000CF6354343F82050F8434D68ED0295688E
:101160004CBF3D43054095604D68AD02D5684CBF0E
:101170003D430540D5604D685668AD034CBF47EA16
:10118000060500EA060552E7BDE8F18700040140C4
:101190000800014018100240000011100000121059
:1011A0000000211000002210000031100000321059
:1011B00000080140000C01400010014000140140F3
:1011C00038B50D4D0D4B2A7804464FF47A711868E6
:1011D000B1FBF2F2B0FBF2F000F07DF850B9102C48
:1011E00008D2002221464FF0FF3000F057F8AC60E3
:1011F000002032BD012032BD000000200C00002084
:1012000062F30F2262F31F42401810F0030308D06C
:10121000C91A1FD3DB0748BF00F8012D28BF20F8EB
:10122000022D130030B414461546103928BF20E9AA
:101230003C00FAD8490728BF20E90C0048BF40F815
:10124000042D890028BF20F8022D48BF00F8012D89
:1012500030BC7047C91818BF00F8012DCB0728BF54
:1012600000F8012D704700000901020002D4244853
:1012700081547047234B02F00F021A4402F8041CF9
:101280007047214B19684FF6FF020002114000F42D
:10129000E06008431D4908431860704770B51A4B59
:1012A0001C68C4F302230124C3F10705052D2EBFDA
:1012B0000F2504FA05F56D1E1E1D072E34BF0023F1
:1012C000DB1E2940994004FA03F3BDE870405B1E21
:1012D0001A401143C8E710B5401EB0F1807F01D31A
:1012E000012010BD0A4C60600F214FF0FF30FFF766
:1012F000BBFF0021A16007202060002010BD00007E
:1013000000E400E018ED00E00CED00E00000FA055C
:1013100010E000E038B5040001D1012032BD00F03A
:1013200019F818B900F078F8FFF7D8FBFFE70220AA
:101330006870211D206800F073F80120A872A87061
:10134000E87028716871A871E87128726872687015
:10135000002032BD04F13C056878704770B5064640
:1013600006F13C0500242878012801D1022070BD37
:101370000120287002226A70DFF810013268936839
:10138000034093600868020018BF102830D020285E
:1013900018BF30282CD0402826D0502819D06028DB
:1013A0001BD0702806D0B0F5805F27D0B0F5005F65
:1013B00007D022E000F02BF83068816841F0770117
:1013C00005E000F024F83068816841F480418160D4
:1013D00014E000F018F850210BE0CA684968306842
:1013E00000F06DF8602104E000F00DF8402100E00D
:1013F0000146306800F075F800E0012401206870B3
:1014000000F00AF870BDCA684968306848E0CB68E7
:101410004A68896830686CE000212970204670476E
:1014200070B51B4E03681B4C1B4DB04218BFB0F18A
:10143000804F03D0A84218BFA04209D14A6823F0C8
:1014400070031343B0421CBFB0F1804FA84201D0DB
:10145000A04203D1CA6823F4407313434A6923F0BE
:10146000800313430360B0428B68C3620A688262E0
:1014700002D10969094A1160012343610169CA0760
:1014800003D5016949084900016170BD8800FFFF6B
:10149000002C01400008004000040040302C0140B6
:1014A00010B5036A046A64086400046223F00A0346
:1014B000846924F0F00444EA0214846123E010B546
:1014C000036A046A24F01004046223F0A003846910
:1014D00024F4704444EA0234846143EA0113036251
:1014E00010BD826822F07002114341F00701816053
:1014F000704710B5846824F47F442143114341EAC6
:101500000321816010BD1943016210BD38B586B05A
:1015100000F0E4F800F099F81022002101A8FFF78C
:101520006BFD6348634C016841F020010160026873
:1015300002F0200200920099026842F00402026068
:10154000036803F0040300930099026842F0080264
:10155000026003210068584A00F0080000900098DB
:101560005648019102920021039101A9FFF74EFD17
:1015700053485449E06021610020606100214FF42C
:101580008040E061A16121626162A162E16204F1D7
:101590000C00FEF7ABFD08B100F09DF81022002111
:1015A00002A8FFF729FD082200216846FFF724FD65
:1015B000454D4FF08040286047214FF6FF700022D4
:1015C000E8606960AA602A61AA612846FFF7A2FE66
:1015D00008B100F080F84FF48050029002A928462C
:1015E000FFF7BCFE08B100F076F8002100910191F0
:1015F0002846694600F084F808B100F06CF804F160
:101600000C0000F0AFF804F10C0000F00FF900F04E
:101610005DF8A07908B10021A171E07908B100213D
:10162000E171207A08B100212172607A08B10021AD
:101630006172A07A08B10021A172E07A08B100219C
:10164000E1720A2000F016F9E1E700B58FB0282218
:10165000002105A8FFF7D0FC142200216846FFF7FF
:10166000CBFC4FF480310022069107920D910120AE
:101670000590099002224FF4E0110C920E9105A8FA
:10168000FFF748FA08B172B6FEE7022101910F2078
:101690004FF4806100900022039102920492022193
:1016A0006846FFF7C1FB08B172B6FEE70FB000BD98
:1016B0001810024010000020000011100008014026
:1016C00000540040801A060070000020214604F1FA
:1016D0000C0000F088B872B6FEE7000080B507483D
:1016E000016841F0100101600320FFF7CAFD0F20DF
:1016F000FFF766FDFFF7AAF9002002BD00200240B7
:1017000070B500F13C031A78012A01D1022070BDA6
:1017100001221A7002245C7005686E68AC680A6861
:1017200026F0700616436E6002680B48824218BFAE
:10173000B2F1804F05D0094882421CBF084DAA4231
:1017400004D1486824F08004044394600121597056
:101750000020187070BD0000002C01400004004003
:10176000000800407FB50446082000F078F82D22DC
:1017700000F071F80021204600F005F80A2120460B
:1017800000F022F87FBD7FB504460D46642001219C
:101790000290019103AE009601233122A62120463A
:1017A000FEF704FE9DF80C0000F0F000012103AAF2
:1017B0000543642002900191009245F008058DF8E0
:1017C0000C500123312243E003B583B06421012290
:1017D00004AB0291019200932C220123A621FEF773
:1017E00047FD05B000BD78B585B00C466421029177
:1017F000062503AE0195009601233222A621FEF7AD
:10180000D5FD03A89DF80C20417842EA01222280F0
:101810009DF80F10827842EA012262809DF8111033
:10182000007940EA0120A08006B070BD7FB5044673
:101830002F2000F014F82E2200F00DF800228DF871
:101840000C20642003AA02900092019501232F220C
:1018500000F001F87FBDA6212046FEF709BD6421F6
:101860008DF80C000291012503AE0195009601232D
:101870007047000038B50446FFF7B8FB14F1010FBC
:10188000054602D0044908780419FFF7AFFB401B56
:10189000A042FAD331BD00BF0000002030B40025C3
:1018A00012E050F8042BD30744BF4A44521E091FCC
:1018B000042942F8045BFAD213468C0744BF158012
:1018C0009B1CC90748BF1D7050F8041B0029E8D1B4
:1018D00030BC704710B5074979441831064C7C4438
:1018E000163404E00A68081D114488470146A142E5
:1018F000F8D110BD0800000028000000A1FFFFFF84
:10190000A80000001000002000000000B7F6FFFF54
:1019100010000000B80000000000002000000000DF
:1019200000F00DF8002801D0FFF7D4FFAFF30080DE
:101930000020AFF30080FFF7E9FD00F002F801207E
:10194000704700F001B800000746384600F002F882
:10195000FBE7000080B5AFF30080024A11001820B9
:10196000ABBEFBE7260002000548014603B468460B
:1019700080F30988AFF30080AFF30080FFF7D0FF5A
:10198000A5EDF5FEFEE7FEE7FEE7FEE7FEE77047A2
:101990007047704700F000B802494A68087882181A
:1019A0004A607047000000207047000000000000FF
:1019B00000000000010203040607080901488047EF
:1019C00001480047A9190008691900080100000032
:1019D000000000001000000000127A00000000006B
:1019E00001020304FFF7FEBFFFF7FEBFFFF7FEBFD4
:1019F000FFF7FEBFFFF7FEBFFFF7FEBFFFF7FEBF1B
:101A0000FFF7FEBFFFF7FEBFFFF7FEBFFFF7FEBF0A
:101A1000FFF7FEBFFFF7FEBFFFF7FEBFFFF7FEBFFA
:101A2000FFF7FEBFFFF7FEBFFFF7FEBFFFF7FEBFEA
:101A3000FFF7FEBFFFF7FEBFFFF7FEBFFFF7FEBFDA
:101A4000FFF7FEBFFFF7FEBFFFF7FEBFFFF7FEBFCA
:101A5000FFF7FEBFFFF7FEBFFFF7FEBFFFF7FEBFBA
:101A6000FFF7FEBFFFF7FEBFFFF7FEBFFFF7FEBFAA
:101A7000FFF7FEBFFFF7FEBFFFF7FEBFFFF7FEBF9A
:101A8000FFF7FEBFFFF7FEBFFFF7FEBFFFF7FEBF8A
:04000005080019696D
:00000001FF
