:020000040800F2
:100000007804002071140008391400083B1400081B
:100010003D1400083F1400084114000800000000CF
:100020000000000000000000000000004314000871
:100030004514000800000000471400084914000897
:100040009114000895140008991400089D140008E4
:10005000A1140008A5140008A9140008AD14000894
:10006000B1140008B5140008B9140008BD14000844
:10007000C1140008C5140008C9140008CD140008F4
:10008000D1140008D5140008D9140008DD140008A4
:10009000E1140008E5140008E9140008ED14000854
:1000A000F1140008F5140008F9140008FD14000804
:1000B0000115000805150008091500080D150008B0
:1000C0001115000815150008191500081D15000860
:1000D0002115000825150008291500082D15000810
:1000E0003115000835150008391500082DE9F843C9
:1000F000040016D02078DFF84C64C10713D570686F
:1001000000F00C00042807D0706800F00C000828EC
:1001100041D17068C1033ED53068810303D5606862
:10012000002800F064812078DFF82874810719D551
:10013000706810F00C0F07D0706800F00C000828F1
:1001400061D17068C1035ED43068810703D520692E
:10015000012840F04C813168606921F0F80141EAE2
:10016000C00131602178080740F18180A069DFF883
:10017000E813002800F0A68001220A6000F016FAB9
:100180000546706A810763D400F010FA401B02280C
:10019000F7D903202EE16068B0F5803F04D13068C4
:1001A00040F48030306014E008B930680AE0B0F5FF
:1001B000A02F306806D140F480203060316841F4CF
:1001C000803105E020F480303060316821F48021F6
:1001D0003160606858B100F0E9F905463068810384
:1001E000A1D400F0E3F9401B6528F7D3D1E700F074
:1001F000DDF905463068810395D500F0D7F9401B3D
:100200006528F7D3C5E72069A8B10121396000F05E
:10021000CDF905463068810705D400F0C7F9401BC9
:100220000228F7D9B5E73068616920F0F80040EAA4
:10023000C100306096E7386000F0B8F905463168D3
:1002400088078FD500F0B2F9401B0228F7D9A0E744
:10025000DFF8F4020168C9084FF47A72B1FBF2F2D8
:10026000009200BF0098411E00280091F9D120782B
:1002700041076ED5F0690025C10009D4F06940F04E
:100280008050F0610125F06900F0805000900098E6
:10029000DFF8C882D8F80000C10520D4D8F80000E3
:1002A00040F48070C8F8000000F080F98146D8F86A
:1002B0000000C10513D400F079F9A0EB090065280E
:1002C000F5D366E7086000F071F90546706A8107AA
:1002D000CDD500F06BF9401B0228F7D959E7E0684B
:1002E000012808D008B9306A09E00528306A06D12B
:1002F00040F004003062306A40F0010005E0400840
:1003000040003062306A20F00400306241F28938E7
:10031000E06860B100F04AF98146306A810713D481
:1003200000F044F9A0EB09004045F6D331E700F0B6
:100330003DF98146306A810706D500F037F9A0EB18
:1003400009004045F6D324E71DB1F06920F0805044
:10035000F061E06900284CD0716801F00C010829B7
:1003600038D002282AD100F047F8054630688101CC
:1003700005D500F01BF9401B0228F7D909E7206AD0
:10038000B0F5803F05D17168A06821F400310143C8
:1003900071607268206A616A22F4741202430A432F
:1003A0007260012000F029F804463068810120D4F1
:1003B00000F0FCF8001B0228F7D9EAE600F01CF870
:1003C00004463068810114D500F0F0F8001B0228C3
:1003D000F7D9DEE601280AD07068226A00F480317D
:1003E000914202BF00F47010616A884201D001207E
:1003F00000E00020BDE8F2830020386600F0D6B8A7
:100400002DE9F041040088464ED0554E00F077F8B3
:1004100002D200F06FF847D120684A4D810712D50B
:10042000400703D5696841F4E061696020780107FD
:1004300003D5686840F4605068606968A06821F07E
:10044000F001014369602178C80725D5606801285B
:1004500002D129688A0303E00228296802D18A01AF
:1004600002D421E08A071FD56968890840EA810023
:10047000686000F09BF807466868616800F00C004F
:10048000B0EB810F08D000F091F8C01B41F2893128
:100490008842F1D303202BE0306800F0070080454C
:1004A00004D200F027F801D0012021E02078410794
:1004B00005D56A68E06822F4E06202436A60217848
:1004C000080706D56968206921F4605141EAC00136
:1004D000696000F019F86A6822491B4BC2F30312E5
:1004E000895CC84018601A48006800F065F8002070
:1004F000BDE8F0813168C90848EAC101316030685F
:1005000000F0070040457047174910480A6802F09C
:100510000C03082B00D0704710B500BF14A4C2F321
:100520008343D203E35C08D50968584314A3C1F39D
:1005300040415A5CB0FBF2F010BD18460B494843ED
:1005400010BD0000001002400C00002000127A00D4
:100550000800002000004242800442420070004037
:1005600000200240601400080410024000093D0011
:1005700002030405060708090A0B0C0D0E0F1010E4
:1005800001020EE002684368024408305FEAC37C5F
:1005900044BF4B445B1E52F804CB43F804CB091F05
:1005A000F9D150F8041B0029ECD17047014840688C
:1005B000704700BF0000002038B50D4D0D4B2A7864
:1005C00004464FF47A711868B1FBF2F2B0FBF2F016
:1005D00000F049F850B9102C08D2002221464FF003
:1005E000FF3000F023F8AC60002032BD012032BDA6
:1005F000000000200C0000200901020002D4244861
:1006000081547047234B02F00F021A4402F8041C75
:100610007047214B19684FF6FF020002114000F4A9
:10062000E06008431D4908431860704770B51A4BD5
:100630001C68C4F302230124C3F10705052D2EBF56
:100640000F2504FA05F56D1E1E1D072E34BF00236D
:10065000DB1E2940994004FA03F3BDE870405B1E9D
:100660001A401143C8E710B5401EB0F1807F01D396
:10067000012010BD0A4C60600F214FF0FF30FFF7E2
:10068000BBFF0021A16007202060002010BD0000FA
:1006900000E400E018ED00E00CED00E00000FA05D9
:1006A00010E000E038B5040001D1012032BD00F0B7
:1006B00043F818B900F0A4F800F039F924E090F8F4
:1006C0003D10012901D001207047022180F83D1022
:1006D000DFF85C200168914218BFB1F1804F07D06C
:1006E000DFF8502091421CBFDFF85430994205D109
:1006F000896801F00701062904D001680A6842F000
:1007000001020A600020704702206870211D2068E5
:1007100000F07AF80120A872A870E870287168715A
:10072000A871E871287268726870002032BD0000FC
:10073000002C01400004004004F13C05687870473B
:100740000008004070B5064606F13C0500242878F4
:10075000012801D1022070BD0120287002226A7098
:10076000DFF8100132689368034093600868020064
:1007700018BF102830D0202818BF30282CD040288F
:1007800026D0502819D060281BD0702806D0B0F58C
:10079000805F27D0B0F5005F07D022E000F02BF893
:1007A0003068816841F0770105E000F024F8306896
:1007B000816841F48041816014E000F018F8502114
:1007C0000BE0CA684968306800F06DF8602104E009
:1007D00000F00DF8402100E00146306800F075F8A7
:1007E00000E001240120687000F00AF870BDCA68BA
:1007F0004968306848E0CB684A68896830686CE0CE
:10080000002129702046704770B51B4E03681B4CB1
:100810001B4DB04218BFB0F1804F03D0A84218BFA3
:10082000A04209D14A6823F070031343B0421CBFB1
:10083000B0F1804FA84201D0A04203D1CA6823F48E
:10084000407313434A6923F0800313430360B042AB
:100850008B68C3620A68826202D10969094A116021
:10086000012343610169CA0703D5016949084900A9
:10087000016170BD8800FFFF002C014000080040AE
:1008800000040040302C014010B5036A046A64087B
:100890006400046223F00A03846924F0F00444EA4B
:1008A0000214846123E010B5036A046A24F0100482
:1008B000046223F0A003846924F4704444EA0234FF
:1008C000846143EA0113036210BD826822F0700262
:1008D000114341F007018160704710B5846824F42A
:1008E0007F442143114341EA0321816010BD194334
:1008F000016210BD164881B0016841F0010101603C
:10090000026802F0010200920099426842F08052AF
:100910004260406800F08050009000980D480168E7
:1009200021F0E06141F00071016001B0704781B0D9
:1009300000680949884209D10548026842F400620A
:100940000260006800F400600090009801B07047F9
:100950001810024004000140002C01402DE9F84F1E
:1009600086B000F005F900F0CDF81022002101A8B2
:1009700000F010F95848594C016841F0200101601D
:10098000026802F0200200920099026842F004021C
:100990000260036803F0040300930099026842F0C8
:1009A000080202604FF40071006800F00800009037
:1009B000002200984A4801910292039201A900F096
:1009C000F3F81022002102A800F0E4F80822002128
:1009D000684600F0DFF84348A0604721E16000204E
:1009E00020614FF6FF71A061E0612062616104F156
:1009F0000800FFF757FE08B100F0B7F84FF4805039
:100A0000029002A904F10800FFF79CFE08B100F073
:100A1000ACF800210091019104F10800694600F052
:100A2000A7F908B100F0A1F800F0D4F9DFF8B88018
:100A3000DFF8B890DFF8B8B006E040EA012000F037
:100A400075FA00F045F825E000F0C7F900283AD023
:100A500000F020FA207000F01DFA607000F01AFA21
:100A6000A07000F017FAE07000F014FA66782578AC
:100A7000A1788246E0787719CF19C719FAB25245A2
:100A80001ED18029D9DB00F063FA00F021F8194962
:100A900000F06CFACBF80000174900F067FA17492C
:100AA00000F0D0FA4FF0844100F058FBC9F8000084
:100AB00046EA052000F03AFA00F00AF8C8F800000B
:100AC00084F804A067714FF47A7000F0F9FBBBE77B
:100AD0000B4900F0B7BA00001810024010000020C7
:100AE000000C0140002C0140680000206400002040
:100AF00060000020000080BF000010410000A04006
:100B00000000204100B58FB02822002105A800F088
:100B100041F814220021684600F03CF84FF480317F
:100B20000022069107920D91012005900990022262
:100B30004FF4E0110C920E9105A8FFF7D7FA08B117
:100B400072B6FEE7022101910F204FF48061009000
:100B5000002203910292049202216846FFF750FCA2
:100B600008B172B6FEE70FB000BD72B6FEE7000036
:100B700080B50748016841F0100101600320FFF7CC
:100B800048FD0F20FFF718FDFFF7B4FE002002BD5F
:100B90000020024010B5044610460A460146204691
:100BA00000F0A2FB204610BD2DE9F8474FF0000EE3
:100BB0000024624A624BDFF88C814FF00F098246B5
:100BC0000CE017683840106006E055604D68ED0392
:100BD000F7D51068074317600EF1010E0F6837FA5A
:100BE0000EF000F09F80012000FA0EF63740B74269
:100BF000F2D1486838B301281AD002281DD0032842
:100C00002ED0112816D012281AD04F4DA8421CBF42
:100C10004E4DA84217D04E4DA8421CBF4D4DA84284
:100C200011D04D4DA8421CBF4C4DA8420BD018E02E
:100C3000CC6816E0CC68241D13E0CC68083410E0C2
:100C4000CC680C340DE0886808B9042409E0012858
:100C500019BF0824CAF814600824CAF8106000E01C
:100C60000024B7F5807F03D250464FEA8E0C05E092
:100C7000AEF108050AF104004FEA850C056809FA8F
:100C80000CF6B54304FA0CF6354305604868C0001D
:100C9000A2D5D8F8000040F00100C8F80000D8F84C
:100CA000005005F0010500954FEA8E0500984FEAC7
:100CB0009E0053F8206005F00C0C09FA0CF526EAAA
:100CC0000505274EB24508BF00260ED0254EB24579
:100CD00008BF012609D0244EB24508BF022604D021
:100CE000224EB2450CBF0326042606FA0CF6354305
:100CF00043F82050F8434D68ED0295684CBF3D43E2
:100D0000054095604D68AD02D5684CBF3D43054038
:100D1000D5604D685668AD034CBF47EA060500EA4A
:100D2000060552E7BDE8F1878068084018BF01203A
:100D3000C0B2704702B90904016170470004014064
:100D400008000140181002400000111000001210AD
:100D500000002110000022100000311000003210AD
:100D600000080140000C0140001001400014014047
:100D700070B500F13C031A78012A01D1022070BD40
:100D800001221A7002245C7005686E68AC680A68FB
:100D900026F0700616436E6002680B48824218BF48
:100DA000B2F1804F05D0094882421CBF084DAA42CB
:100DB00004D1486824F080040443946001215970F0
:100DC0000020187070BD0000002C0140000400409D
:100DD000000800404E48FFF772BCF8B584B01022FE
:100DE00000216846FFF7D6FE4FF400710091012202
:100DF000022103910024019202946946454D444E1C
:100E00002846FFF7D1FE002200F03AF8306844622D
:100E100040F21452416A9142FCD3012200F030F8B2
:100E200030684462416A1E29FCD301210291019479
:100E300069462846FFF7B8FE30684462416A2829AF
:100E4000FCD300F022F840B930684462416A50296E
:100E5000FCD300F01AF800B101242F4E2F4FFFF7FA
:100E6000A5FB3060FFF7A2FB386000F00EF820B160
:100E700031683868891C8842F4D3204605B0F0BD3B
:100E80004FF400712846FFF755BF4FF40071284614
:100E9000FFF74ABF2DE9F047002400254FF0010875
:100EA000DFF870901D4E1C4FFFF780FB3860FFF796
:100EB0007DFB00F035F820B939683068891C88421C
:100EC000F5D30021124800684162416A2829FCD309
:100ED00000F027F8C5F1070A08FA0AFA00280CBF43
:100EE00024EA0A044AEA0404FFF760FB3860FFF7CB
:100EF0005DFB00F015F820B139683068891C884224
:100F0000F5D36D1C082DCFDBE0B2BDE8F087000003
:100F100018000020000C01406C0000207000002030
:100F200030604FF400714846FFF7FEBE10F0004CF1
:100F300068B148BF4042B0FA80F18840D1F19D01CC
:100F40004CEAC15C010671F100414CEB1020704786
:100F500050B1B0FA80F18840C1F19D01C905020687
:100F600072F1004241EB102070470000FF2212EAAC
:100F7000D05C1DBF12EAD153944593422BE09C44B0
:100F8000D30780EA010243EA002043EA01211A4024
:100F9000A1FB0030C04238BF00187CF17F010BDBA1
:100FA000FE294ADA5B0842EAC15153EA006373F151
:100FB000004C51EB10207047D1F1080CDCF12001FE
:100FC0002FDB5B0810FA01F10B4320FA0CF073F1F0
:100FD00000415041704794451CBF02EAD1539342EF
:100FE00080EA010202F000421DD0400019D0490001
:100FF00017D05BB9634514D00902B1FA81F3994067
:10100000BCEB030CC00140F00040C1E70002B0FAA5
:1010100080FC10FA0CF0B3EB0C0CC90141F000415C
:10102000B6E71000704740000AD0490008D010F120
:10103000807F94BF11F1807F02E042F0FF40704753
:10104000D04370474FF0FF0C1CEAD0531DBF1CEA81
:10105000D1526345624543E09B1A5FEACC7280EA55
:10106000010C42EA01211CEA020C42EA0020421A69
:1010700038BF01EB420253F17E034FEA1121B2FB6C
:10108000F1F001FB102260F3D63C4FEA0222B2FBE2
:10109000F1F001FB102260F3CE1C4FEA0222B2FBFA
:1010A000F1F006DDFF2B29DA5CEA500040EBC3507B
:1010B0007047C3F1020301FB1022192B40EA4C01D7
:1010C0000CF0004C41F0807121DC21FA03F0C3F1F7
:1010D00020039940114371F1004250EB0C0070471E
:1010E00063451ABF0CEAD152624512E080EA010C56
:1010F00000180CF0004C06D049181AD10CF0004C26
:101100004CF0FF407047C94208BF6FEA020C6046CE
:101110007047634506D1B2EB0C02F5D001F00041F7
:10112000484070474A0212BF0846484000F000405D
:1011300070474AB90902B1FA81F2914043B19B1854
:10114000C00140F0004092E7C90141F00041524225
:101150000002B0FA80F39840D31A88E790EA010FB2
:1011600040F16C8081F00041431A4FF000423EBFD5
:101170005340C01AC918D3095FEAD05C13EB400F83
:1011800034BFB3EB410F40E07CEBD1530CD342EAC8
:10119000012122D8D1EB402009D3400A28BF5FEAC1
:1011A000500140EBCC507047401A15D04002B0FAC5
:1011B00080F2521C9040400A4FEA3C23B3EB02639A
:1011C00084BF00EB730007E040F400001A16DB0751
:1011D000C2F10102D04018437047182BFCDC31FAF1
:1011E00003F202FA03F3591A38BF42F00102D2EBBC
:1011F00040203CBF0018ACF1010C5FEACC5CC2059A
:1012000072F100414CEB5020704713EB400F0FD2AE
:10121000C94209D0ACEBD153022B03DB4902172B97
:10122000DDDD70479143401AC042D5D100207047A0
:1012300013EB410FD0D36FF000007047421A3CBF50
:10124000801A8918C0F3C752FF2A4FF0004C22D0F1
:10125000C1F3C7534BB3D21AD2F119032EDD4CEAB6
:1012600001214CFA03F321EA0303D1404CEA0022A6
:101270006FF3160052180FD353EAC2534CEA5202CE
:1012800073EB0C0C50EB1220420012F1807F38BF40
:1012900070476FF31600704753EA026322EA0C02AC
:1012A00073EB0C0C50EB12207047490212BF9A42AC
:1012B00000EB5120EFE7D2F11703D2D570470000C1
:1012C00038B50446FFF772F914F1010F054602D054
:1012D000044908780419FFF769F9401BA042FAD3C2
:1012E00031BD00BF0000002062F30F2262F31F42F5
:1012F000401810F0030308D0C91A1FD3DB0748BFFA
:1013000000F8012D28BF20F8022D130030B4144638
:101310001546103928BF20E93C00FAD8490728BFF4
:1013200020E90C0048BF40F8042D890028BF20F8B0
:10133000022D48BF00F8012D30BC7047C91818BFF6
:1013400000F8012DCB0728BF00F8012D704730B4FD
:10135000002512E050F8042BD30744BF4A44521E24
:10136000091F042942F8045BFAD213468C0744BFD4
:1013700015809B1CC90748BF1D7050F8041B00292D
:10138000E8D130BC7047000010B5074979441831E6
:10139000064C7C44163404E00A68081D1144884752
:1013A0000146A142F8D110BD08000000280000004D
:1013B0009FFFFFFF640000001000002000000000FD
:1013C000C3F1FFFF10000000B80000000000002083
:1013D0000000000000F00DF8002801D0FFF7D4FF56
:1013E000AFF300800020AFF30080FFF7B7FA00F002
:1013F00002F80120704700F001B8000007463846A7
:1014000000F002F8FBE7000080B5AFF30080024A6D
:1014100011001820ABBEFBE726000200054801467C
:1014200003B4684680F30988AFF30080AFF300800F
:10143000FFF7D0FFA5EDF5FEFEE7FEE7FEE7FEE7CE
:10144000FEE770477047704700F000B802494A68ED
:10145000087882184A60704700000020704700003A
:101460000000000000000000010203040607080954
:1014700001488047014800475D1400081D1400081A
:1014800001000000000000001000000000127A00BF
:10149000FFF7FEBFFFF7FEBFFFF7FEBFFFF7FEBF80
:1014A000FFF7FEBFFFF7FEBFFFF7FEBFFFF7FEBF70
:1014B000FFF7FEBFFFF7FEBFFFF7FEBFFFF7FEBF60
:1014C000FFF7FEBFFFF7FEBFFFF7FEBFFFF7FEBF50
:1014D000FFF7FEBFFFF7FEBFFFF7FEBFFFF7FEBF40
:1014E000FFF7FEBFFFF7FEBFFFF7FEBFFFF7FEBF30
:1014F000FFF7FEBFFFF7FEBFFFF7FEBFFFF7FEBF20
:10150000FFF7FEBFFFF7FEBFFFF7FEBFFFF7FEBF0F
:10151000FFF7FEBFFFF7FEBFFFF7FEBFFFF7FEBFFF
:10152000FFF7FEBFFFF7FEBFFFF7FEBFFFF7FEBFEF
:0C153000FFF7FEBFFFF7FEBFFFF7FEBF96
:040000050800141DBE
:00000001FF
