:020000040800F2
:1000000010040020BD0800088508000887080008C3
:10001000890800088B0800088D080008000000000F
:100020000000000000000000000000008F08000831
:1000300091080008000000009308000895080008D7
:10004000DD080008E1080008E5080008E9080008E4
:10005000ED080008F1080008F5080008F908000894
:10006000FD08000801090008050900080909000841
:100070000D090008110900081509000819090008F0
:100080001D090008210900082509000829090008A0
:100090002D09000831090008350900083909000850
:1000A0003D09000841090008450900084909000800
:1000B0004D090008510900085509000859090008B0
:1000C0005D09000861090008650900086909000860
:1000D0006D09000871090008750900087909000810
:1000E0007D09000881090008850900082DE9F84309
:1000F000040016D02078DFF84C64C10713D570686F
:1001000000F00C00042807D0706800F00C000828EC
:1001100041D17068C1033ED53068810303D5606862
:10012000002800F064812078DFF82874810719D551
:10013000706810F00C0F07D0706800F00C000828F1
:1001400061D17068C1035ED43068810703D520692E
:10015000012840F04C813168606921F0F80141EAE2
:10016000C00131602178080740F18180A069DFF883
:10017000E813002800F0A68001220A6000F016FAB9
:100180000546706A810763D400F010FA401B02280C
:10019000F7D903202EE16068B0F5803F04D13068C4
:1001A00040F48030306014E008B930680AE0B0F5FF
:1001B000A02F306806D140F480203060316841F4CF
:1001C000803105E020F480303060316821F48021F6
:1001D0003160606858B100F0E9F905463068810384
:1001E000A1D400F0E3F9401B6528F7D3D1E700F074
:1001F000DDF905463068810395D500F0D7F9401B3D
:100200006528F7D3C5E72069A8B10121396000F05E
:10021000CDF905463068810705D400F0C7F9401BC9
:100220000228F7D9B5E73068616920F0F80040EAA4
:10023000C100306096E7386000F0B8F905463168D3
:1002400088078FD500F0B2F9401B0228F7D9A0E744
:10025000DFF8F4020168C9084FF47A72B1FBF2F2D8
:10026000009200BF0098411E00280091F9D120782B
:1002700041076ED5F0690025C10009D4F06940F04E
:100280008050F0610125F06900F0805000900098E6
:10029000DFF8C882D8F80000C10520D4D8F80000E3
:1002A00040F48070C8F8000000F080F98146D8F86A
:1002B0000000C10513D400F079F9A0EB090065280E
:1002C000F5D366E7086000F071F90546706A8107AA
:1002D000CDD500F06BF9401B0228F7D959E7E0684B
:1002E000012808D008B9306A09E00528306A06D12B
:1002F00040F004003062306A40F0010005E0400840
:1003000040003062306A20F00400306241F28938E7
:10031000E06860B100F04AF98146306A810713D481
:1003200000F044F9A0EB09004045F6D331E700F0B6
:100330003DF98146306A810706D500F037F9A0EB18
:1003400009004045F6D324E71DB1F06920F0805044
:10035000F061E06900284CD0716801F00C010829B7
:1003600038D002282AD100F047F8054630688101CC
:1003700005D500F01BF9401B0228F7D909E7206AD0
:10038000B0F5803F05D17168A06821F400310143C8
:1003900071607268206A616A22F4741202430A432F
:1003A0007260012000F029F804463068810120D4F1
:1003B00000F0FCF8001B0228F7D9EAE600F01CF870
:1003C00004463068810114D500F0F0F8001B0228C3
:1003D000F7D9DEE601280AD07068226A00F480317D
:1003E000914202BF00F47010616A884201D001207E
:1003F00000E00020BDE8F2830020386600F0D6B8A7
:100400002DE9F041040088464ED0554E00F077F8B3
:1004100002D200F06FF847D120684A4D810712D50B
:10042000400703D5696841F4E061696020780107FD
:1004300003D5686840F4605068606968A06821F07E
:10044000F001014369602178C80725D5606801285B
:1004500002D129688A0303E00228296802D18A01AF
:1004600002D421E08A071FD56968890840EA810023
:10047000686000F09BF807466868616800F00C004F
:10048000B0EB810F08D000F091F8C01B41F2893128
:100490008842F1D303202BE0306800F0070080454C
:1004A00004D200F027F801D0012021E02078410794
:1004B00005D56A68E06822F4E06202436A60217848
:1004C000080706D56968206921F4605141EAC00136
:1004D000696000F019F86A6822491B4BC2F30312E5
:1004E000895CC84018601A48006800F065F8002070
:1004F000BDE8F0813168C90848EAC101316030685F
:1005000000F0070040457047174910480A6802F09C
:100510000C03082B00D0704710B500BF14A4C2F321
:100520008343D203E35C08D50968584314A3C1F39D
:1005300040415A5CB0FBF2F010BD18460B494843ED
:1005400010BD0000001002400C00002000127A00D4
:100550000800002000004242800442420070004037
:1005600000200240AC0800080410024000093D00D1
:1005700002030405060708090A0B0C0D0E0F1010E4
:1005800001020EE002684368024408305FEAC37C5F
:1005900044BF4B445B1E52F804CB43F804CB091F05
:1005A000F9D150F8041B0029ECD17047014840688C
:1005B000704700BF0000002038B50D4D0D4B2A7864
:1005C00004464FF47A711868B1FBF2F2B0FBF2F016
:1005D00000F049F850B9102C08D2002221464FF003
:1005E000FF3000F023F8AC60002032BD012032BDA6
:1005F000000000200C0000200901020002D4244861
:1006000081547047234B02F00F021A4402F8041C75
:100610007047214B19684FF6FF020002114000F4A9
:10062000E06008431D4908431860704770B51A4BD5
:100630001C68C4F302230124C3F10705052D2EBF56
:100640000F2504FA05F56D1E1E1D072E34BF00236D
:10065000DB1E2940994004FA03F3BDE870405B1E9D
:100660001A401143C8E710B5401EB0F1807F01D396
:10067000012010BD0A4C60600F214FF0FF30FFF7E2
:10068000BBFF0021A16007202060002010BD0000FA
:1006900000E400E018ED00E00CED00E00000FA05D9
:1006A00010E000E062F30F2262F31F42401810F0E6
:1006B000030308D0C91A1FD3DB0748BF00F8012D78
:1006C00028BF20F8022D130030B414461546103907
:1006D00028BF20E93C00FAD8490728BF20E90C00D0
:1006E00048BF40F8042D890028BF20F8022D48BFDC
:1006F00000F8012D30BC7047C91818BF00F8012D53
:10070000CB0728BF00F8012D704780B500F02CF80A
:1007100000F001F8FEE700B58FB02822002105A8FF
:1007200000F034F814220021684600F02FF802216E
:10073000012205910992102100220A910C9205A82C
:10074000FFF7D4FC08B172B6FEE70F20009000213D
:1007500001910291039104916846FFF751FE08B19F
:1007600072B6FEE70FB000BD80B50748016841F0E2
:10077000100101600320FFF74CFF0F20FFF71CFF63
:1007800000F00EF8002002BD0020024010B5044623
:1007900010460A4601462046FFF784FF204610BD5A
:1007A0000E4881B0016841F001010160026802F069
:1007B000010200920099426842F080524260406813
:1007C00000F08050009000980548016821F0E06139
:1007D00041F08061016001B0704700BF1810024015
:1007E0000400014010B5074979441831064C7C4497
:1007F000163404E00A68081D114488470146A142E6
:10080000F8D110BD080000001800000077FDFFFFC0
:1008100010000000B80000000000002000000000F0
:1008200000F00DF8002801D0FFF7DCFFAFF30080E7
:100830000020AFF30080FFF768FF00F002F801200E
:10084000704700F001B800000746384600F002F893
:10085000FBE7000080B5AFF30080024A11001820CA
:10086000ABBEFBE7260002000548014603B468461C
:1008700080F30988AFF30080AFF30080FFF7D0FF6B
:10088000A5EDF5FEFEE7FEE7FEE7FEE7FEE77047B3
:100890007047704700F000B802494A68087882182B
:1008A0004A60704700000020704700000000000010
:1008B0000000000001020304060708090148804700
:1008C00001480047A9080008690800080100000065
:1008D000000000001000000000127A00FFF7FEBFC9
:1008E000FFF7FEBFFFF7FEBFFFF7FEBFFFF7FEBF3C
:1008F000FFF7FEBFFFF7FEBFFFF7FEBFFFF7FEBF2C
:10090000FFF7FEBFFFF7FEBFFFF7FEBFFFF7FEBF1B
:10091000FFF7FEBFFFF7FEBFFFF7FEBFFFF7FEBF0B
:10092000FFF7FEBFFFF7FEBFFFF7FEBFFFF7FEBFFB
:10093000FFF7FEBFFFF7FEBFFFF7FEBFFFF7FEBFEB
:10094000FFF7FEBFFFF7FEBFFFF7FEBFFFF7FEBFDB
:10095000FFF7FEBFFFF7FEBFFFF7FEBFFFF7FEBFCB
:10096000FFF7FEBFFFF7FEBFFFF7FEBFFFF7FEBFBB
:10097000FFF7FEBFFFF7FEBFFFF7FEBFFFF7FEBFAB
:08098000FFF7FEBFFFF7FEBF09
:04000005080008697E
:00000001FF
